:020000021000EC
:10020000900A002029160100673F010079150100BE
:1002100079150100791501007915010079150100A2
:100220007915010079150100791501006D1401009F
:10023000791501007915010019140100693E0100CA
:10024000E9150100E9150100E9150100E9150100B2
:10025000E9150100E9150100E9150100E9150100A2
:10026000E9150100E9150100E9150100E915010092
:10027000E9150100E9150100E9150100E915010082
:10028000E9150100E9150100E9150100E915010072
:10029000E9150100E9150100E9150100E915010062
:1002A000E9150100E9150100E9150100E915010052
:1002B000E9150100E9150100E9150100E915010042
:1002C000E9150100E9150100E9150100E915010032
:1002D000E9150100E9150100E9150100E915010022
:1002E000E9150100E9150100E9150100E915010012
:1002F000E9150100E9150100E9150100E915010002
:10030000E9150100E9150100E9150100E9150100F1
:10031000E9150100E9150100E9150100E9150100E1
:10032000E9150100E9150100E9150100E9150100D1
:10033000E9150100E9150100E9150100E9150100C1
:10034000E9150100000000000000000000000000AE
:10035000000000000000000000000000000000009D
:10036000000000000000000000000000000000008D
:10037000000000000000000000000000000000007D
:10038000000000000000000000000000000000006D
:10039000000000000000000000000000000000005D
:1003A000000000000000000000000000000000004D
:1003B000000000000000000000000000000000003D
:1003C000000000000000000000000000000000002D
:1003D000000000000000000000000000000000001D
:1003E000000000000000000000000000000000000D
:1003F00000000000000000000000000000000000FD
:10040000DEE61E284CBBCE8F025B00003C000000E5
:10041000007E000001000000000201000002010057
:10042000FFFF02910000000000000000000000003B
:0C043000000000000000000000000000C0
:10043C0053B94AB9002908BF00281CBF4FF0FF313F
:10044C004FF0FF3000F06CB9ADF1080C6DE904CE43
:10045C0000F006F8DDF804E0DDE9022304B0704793
:10046C002DE9F047089D04468846002B7DD18A4231
:10047C0017463FD9B2FA82F242B1C2F12000914044
:10048C00974024FA00F0944040EA01084FEA174CD8
:10049C00230C1FFA87FEB8FBFCF60CFB168106FB3F
:1004AC000EF043EA0143984205D9FB1802D2984258
:1004BC0000F22481013E191AA3B2B1FBFCF00CFB33
:1004CC00101100FB0EFE43EA0144A64505D93C1968
:1004DC0002D2A64500F20F81013840EA0640A4EB97
:1004EC000E0400261DB1D4400023C5E9004331465B
:1004FC00BDE8F08702B9FFDEB2FA82F2002A50D1D1
:10050C00CB1B4FEA174E1FFA87F80126210CB3FBC1
:10051C00FEFC0EFB1C300B4608FB0CF941EA0041BB
:10052C0089450AD979182CBF01230023894502D9A2
:10053C00002B00F0D9800CF1FF3CA1EB0901A3B218
:10054C00B1FBFEF00EFB101108FB00F843EA01446E
:10055C00A04505D93C1902D2A04500F2C98001384A
:10056C00A4EB080440EA0C40BCE78B4209D9002DEF
:10057C0000F0B1800026C5E9000130463146BDE8E7
:10058C00F087B3FA83F6002E46D18B42C0F0A680DA
:10059C00824240F2A3803046002DA8D0C5E9004825
:1005AC00A5E79740C2F1200301FA02F04FEA174E7B
:1005BC00D94024FA03F31FFA87F894400343B1FBA4
:1005CC00FEF01E0C0EFB101100FB08FC46EA01416C
:1005DC008C4509D979182CBF012600268C4502D9E7
:1005EC00002E00F093800138A1EB0C019BB2B1FB03
:1005FC00FEF60EFB161106FB08FC43EA01418C4586
:10060C0005D9791802D28C4500F28780013EA1EB06
:10061C000C0346EA004679E7C6F1200703FA06F414
:10062C0002FA06FC01FA06FEFA4020FA07F8F94035
:10063C0000FA06F3224348EA0E044FEA12484FEA46
:10064C00144E1FFA82F9B1FBF8FA08FB1A110AFBD7
:10065C0009F04EEA014E70450AD912EB0E0E2CBF72
:10066C0001210021704501D9002952D00AF1FF3A2D
:10067C00AEEB000EA4B2BEFBF8F008FB10EE00FBD4
:10068C0009F944EA0E4EF14505D912EB0E0E01D2D2
:10069C00F14538D8013840EA0A40AEEB090EA0FB10
:1006AC000C89CE4541464C4602D306D1434504D273
:1006BC000138B8EB0C0169EB020415B35A1A6EEB56
:1006CC00040EF2400EFA07F72EFA06F30026174333
:1006DC00C5E900730BE72E46284608E7841A61EB40
:1006EC0003010120884657E7ACF1020C394424E79A
:1006FC0002383C4434E702383C44EEE6023E3B44CC
:10070C00D9E62E46F3E602389644C4E7023839445B
:10071C006AE7AAF1020A9644AAE7023E394476E750
:10072C00704700BF2DE9E04F2746A046A146A246E0
:10073C00A346A4462DED108B4FF0000545EC185B3D
:10074C0045EC195A45EC1A5A45EC1B5A45EC1C5A07
:10075C0045EC1D5A45EC1E5A45EC1F5AF1EE105A49
:10076C004FF66076C0F6FF763540E1EE105A84F312
:10077C00008825462646A447BDEC108BBDE8E08FCB
:10078C000B6801330B60014B1B681847D01300201A
:10079C002DE9F04F2DED028B83B00E9C9A46012C67
:1007AC00B8BF0124012B0CBF30232023154606466D
:1007BC0008EE103A01274FF00A080022DFF874B057
:1007CC00B5FBFBF90AB9AB4520D809F13000009113
:1007DC00B0470122013700990A2308F1FF38B8F11C
:1007EC00010F0BFB1955BBFBF3FBE9D105F13000F5
:1007FC000091B047BAF1030F009902D1E41B002C11
:10080C0011DC03B0BDEC028BBDE8F08F4445E3DB9B
:10081C00BAF1020FE0D818EE100ACDE90012013738
:10082C00B047019AD7E720200091013CB0470099CE
:10083C00E5E700BF00CA9A3B014B1860704700BF48
:10084C00D01300202DE9F04F002705468B464FF0C2
:10085C00FF39B8461C468DB0531E0393002605E0A5
:10086C006EB9252800F071815946A847039B13F8EF
:10087C00010F03930028F3D10DB0BDE8F08F7A2857
:10088C000AD8622810D8302854D045D8252800F032
:10089C005A812D2800F05F8159462520A8475946DA
:1008AC00039B1878A847D9E7A0F16303172BF3D85B
:1008BC0001A252F823F000BF4B0B01008F0901007D
:1008CC00A5080100A5080100A50801007109010097
:1008DC008F090100A5080100A5080100710901009C
:1008EC00A5080100A5080100A5080100310A0100B6
:1008FC00A5080100A50801001B0B0100A5080100BB
:10090C00FF090100A5080100A50801002D0901003F
:10091C00A50801007109010039281AD95828BBD142
:10092C00039B1B78702B40F0888054F8043B00220A
:10093C00069390E0B9F1000F0EDAB8F1000F00F059
:10094C000D81A0F13009B8F1000F08BF4FF002087B
:10095C008CE7B9F1000FF4DB0A2303FB0909A9F1B9
:10096C003009F0E7682803D1682F06D148277DE7C6
:10097C006C2802D16C2F00F0F480002F8CD107462C
:10098C0074E77A2F02D154F8046B21E06C2FFAD063
:10099C004C2FF8D1073424F00704F4E80223CDE9F6
:1009AC000423049B4FF0FF3013F10041059B089189
:1009BC0043F1000109910021DDE90823994208BFA8
:1009CC00904204D25946284603F027F946E7049E84
:1009DC00002E05DA59462D20A847764209F1FF3939
:1009EC0043463246CDF8009059462846FFF7D0FED4
:1009FC0034E77A2F02D154F8042B0FE06C2FFAD085
:100A0C004C2FF8D100214FF0FF30073424F00704AD
:100A1C00F4E80223994208BF9042D3D34346CDF861
:100A2C000090E1E759463020A84759467820A8475E
:100A3C004FF008094FF0010872E76C2F3FF475AFC7
:100A4C004C2F7FF472AFE31D23F007031C4654F8C0
:100A5C00082B06925A68002110234FF0400A04918B
:100A6C000791AAF1040A0699CAF1200EAAF1200CEA
:100A7C0021FA0AF002FA0EFE40EA0E0022FA0CFCF1
:100A8C0040EA0C0010F00F0007D1079911B9BAF128
:100A9C00000F25D14FF0300C05E009288CBF4FF02A
:100AAC00570C4FF0300C6044594640B20A920793F1
:100ABC00A847049B0A9A01330493079BBAF1000FD1
:100ACC0023D1B8F1030F7FF4C9AE049BC3EB4906E5
:100ADC00002E7FF7C3AE59462020A847013EF7E70A
:100AEC00591E99450A9107DBB8F1010F06D15946F9
:100AFC0030200B92A8470B9A0A9BB2E7B8F1020F71
:100B0C00FAD1594620200B92F4E70796A9E754F83E
:100B1C00046BB24653461AF8010B68B9B8F1030FCF
:100B2C0021D19E1BA9EB0606002E7FF797AE5946E6
:100B3C002020A847013EF7E75946A847EAE759465F
:100B4C0054F8040BAEE65946ACE63746B0464FF0C7
:100B5C00FF3901268AE64FF0030887E64FF00108BB
:100B6C0084E64C2782E6064680E600BF07B50B46B6
:100B7C00002102460191034801A9FFF763FE03B06F
:100B8C005DF804FB8D0701004FF02002EFF3118399
:100B9C0082F31188BFF36F8F0121044AC2F840150C
:100BAC0083F31188BFF36F8F0020704700900350C0
:100BBC000A2838B50446074D04D1286843680D212E
:100BCC005B68984728684368E1B25B6898472046A1
:100BDC0038BD00BF0800002008B5044801F086F8B5
:100BEC00BDE808400148FFF727BE00BFBD0B010060
:100BFC0008B5044801F0A6FA034B1860FFF7ECFFA8
:100C0C00002008BDCD4801000800002008B5114B9C
:100C1C001A686AB14FF05022D2F80423D10707D5D5
:100C2C0000220D481A608368597A09B903F066F8F6
:100C3C000A4B1A686AB14FF05022D2F8042392077B
:100C4C0007D5002201211A600348BDE8084003F0D3
:100C5C0055B808BD005100508014002004510050BC
:100C6C0000220D4BC3F840214FF02002EFF311810D
:100C7C0082F31188BFF36F8F084AD3F80405136809
:100C8C00C01A20F07F400344136081F31188BFF336
:100C9C006F8F02F025B800BF0050015024000020D7
:100CAC0070B5154801F04EFA10B3436801211B686A
:100CBC009847002401264FF480334FF400120F4D57
:100CCC003146C5F80845C5F84065C5F804330C4BEA
:100CDC0015201C600B4BC3F88021224600F0E0FB72
:100CEC00152000F0CDFB2046074B1E602E6070BD1A
:100CFC004FF0FF30FBE700BF944A01000050015059
:100D0C004051015000E100E008500150254B70B5F6
:100D1C00B0F1FF3F08BF18464FF02002EFF31184EB
:100D2C0082F31188BFF36F8F1F4AD2F804151F4A44
:100D3C0012688E1A26F07F4536021AD4013820EA42
:100D4C00E0709842A8BF184601352844984294BFD9
:100D5C001318D318591A21F07F410229124923F094
:100D6C007F42C1F8402506D984F31188BFF36F8FF9
:100D7C0070BD0020E8E7D1F804250D489A1A22F03E
:100D8C007F42551E854205D94FF40012094BC3F81A
:100D9C000021E9E7012A02BF023323F07F43C1F8A7
:100DAC004035E1E7FEFFFF00005001502400002019
:100DBC00FEFF7F0000E100E04FF02002EFF3118313
:100DCC0082F31188BFF36F8F064AD2F80405064AE6
:100DDC001268801A20F07F4083F31188BFF36F8F65
:100DEC00704700BF0050015024000020F7B50028C8
:100DFC001C460D4614BF4FF400534FF40043204ED5
:100E0C00954232D302FB03F0013A4B4300901D484C
:100E1C0002F011FF1C4B14F0100F1C491C4808BFAA
:100E2C00194602F008FF14F0040F14BF72212D2193
:100E3C00184802F000FF14F0020F14BF77212D2187
:100E4C00144802F0F8FE14F0010F0CBF2D2178218C
:100E5C00104802F0F0FE6C210E4802F0ECFE0E4839
:100E6C0003B0BDE8F04002F0E6BE28B105F5E0772E
:100E7C0046F827400135C3E705F5C077F8E700BF12
:100E8C0000300050F3480100E7480100DE48010043
:100E9C00724A01000D490100414C010008B543B2F2
:100EAC00002B0CDB012200F01F018A405B0910496A
:100EBC00203341F82320BFF34F8FBFF36F8F830094
:100ECC0003F1A04303F540533128D3F8002806D092
:100EDC00002A07DA02F00302023A012A02D8054A74
:100EEC00C3F80028002103F009F8002008BD00BF5A
:100EFC0000E100E00001008030B54FF4E13485B032
:100F0C002E4D4FF4E1312E4802F095FE21682D480C
:100F1C0002F091FE29682C4802F08DFE102200216F
:100F2C00684603F0B1F8236868460093029400F019
:100F3C0067FE012000F094FE002000F07DFE0020F2
:100F4C0000F0A2FE0121002000F0BCFE00F0B0FE7B
:100F5C002C681E4802F06FFE0820FFF79FFF24F05C
:100F6C000104BFF34F8FBFF36F8F640864002046FA
:100F7C00214622462346B7EE000AF7EE000AB7EEEA
:100F8C00001AF7EE001AB7EE002AF7EE002AB7EEB9
:100F9C00003AF7EE003AB7EE004AF7EE004AB7EE29
:100FAC00005AF7EE005AB7EE006AF7EE006AB7EE99
:100FBC00007AF7EE007AFFF7B5FB00BF04C2010020
:100FCC0010490100274901003C4901005A49010020
:100FDC002DE9F8433B4802F02EFE002140F2171396
:100FEC0008460322FFF702FF40F2071320220321D9
:100FFC000020FFF7FBFE344802F01DFE334B344A51
:10100C00C3F3C431C3F30E03C3F50043C3F343135B
:10101C00C2F80015C2F80435D2F80015D2F8042530
:10102C002C48520102F007FE274802F004FE02F0A1
:10103C0017FF014610B1284802F0FDFD0024274897
:10104C0002F0F9FD40F21713082200210120FFF7EE
:10105C00CDFE1F4D40F20713202208210120FFF77F
:10106C00C5FE194802F0E7FDC5F880441C4802F0A3
:10107C00E2FD1C4FC5F8C044DFF87C801A4DDFF848
:10108C007C906E792146002E14BF3B464346484661
:10109C002A6802F0D0FD66B91448013402F0CBFD89
:1010AC001A2C05F10805ECD10748BDE8F84302F00D
:1010BC00C2BD2879FFF7F2FE08B10D48EDE70D48E7
:1010CC00EBE700BF90490100414C0100E07F0100BB
:1010DC0000300050B4490100FA4901002A4A0100CD
:1010EC004C4A01008549010074460100754A010013
:1010FC007C4A0100844A0100EB480100684A010067
:10110C0010B5002850D0002A4ED0B1F5803F48D3FE
:10111C005318B3F5813F06D9254CA1423BD904F6AF
:10112C001D24A3423AD802F084FF0020BDE81040F1
:10113C00714672467346B7EE000AF7EE000AB7EE38
:10114C00001AF7EE001AB7EE002AF7EE002AB7EEF7
:10115C00003AF7EE003AB7EE004AF7EE004AB7EE67
:10116C00005AF7EE005AB7EE006AF7EE006AB7EED7
:10117C00007AF7EE007A8EF3008C10B4F1EE10CA00
:10118C004FF66074C0F6FF740CEA040CE1EE10CA62
:10119C0010BCF4467447074CA14202D9064CA3423A
:1011AC00C1D94FF0FF30C1E76FF01500BEE700BFAB
:1011BC000302FF002F01FF003801FF002DE9F04F63
:1011CC0081460E4685B0002954D04FF00008DFF858
:1011DC00B8B0DFF8B8A001AF5BF8045B9AE8070081
:1011EC004D4487E807000C223946284602F0FAFEE7
:1011FC00044608B9002D40D108F10108B8F1050FDB
:10120C00EAD16FF00D04204605B0B7EE000AF7EEF8
:10121C00000AB7EE001AF7EE001AB7EE002AF7EE46
:10122C00002AB7EE003AF7EE003AB7EE004AF7EEB6
:10123C00004AB7EE005AF7EE005AB7EE006AF7EE26
:10124C00006AB7EE007ABDE8F04F714672467346FD
:10125C00F7EE007A8EF3008C10B4F1EE10CA4FF654
:10126C006074C0F6FF740CEA040CE1EE10CA10BCFA
:10127C00F44674476FF01504C5E73C222946304606
:10128C0002F0D7FEBFE700BF44470100244601002F
:10129C00014801F091BF00BF5847010008B530B1BB
:1012AC0043683BB1006801F04BF9002008BD6FF4B6
:1012BC00E040FBE70048F9E7EA8FFFFF38B504464A
:1012CC0018B90B4B0B485B689847656855B115F01E
:1012DC000205206807D10146074801F091F8256006
:1012EC000023636038BD1422002102F0CDFEF7E725
:1012FC0024140020854B01002800002010B5044662
:10130C0018B9134B13485B6898476368BBB92368DB
:10131C00ABB94FF0FF3221460F4801F045F808B940
:10132C0023681BB90A4B0D485B68984714220021AF
:10133C00206802F0A9FE636843F002036360206832
:10134C0002F03CFF636843F00103636010BD00BF13
:10135C0024140020854B010028000020AB4B010019
:10136C0008B558B1436863B100684FF0FF3101F024
:10137C0075F8054B002818BF184608BD6FF4E040FF
:10138C00FBE70248F9E700BFE98FFFFFEA8FFFFF99
:10139C0008B5064940231422054802F0F4FEBDE8C6
:1013AC0008400449044801F03FBF00BF440000203E
:1013BC002800002070470100604701000448816844
:1013CC00406A884203D003494FF080520A6070474C
:1013DC003006002004ED00E0094A0A4993680968C8
:1013EC005866996608494B6843F080534B6000235C
:1013FC0083F31188BFF36F8F9368986E704700BFAB
:10140C0030060020DC47010000ED00E012498A683C
:10141C004FF028001044EFF3098C80E8F01F2020D7
:10142C0080F31188BFF36F8F0C4F4FF000664A6A40
:10143C008A603E60506E0023536680F3118804B5B9
:10144C00104602F091FDBDE8044002F1280090E83E
:10145C00F01F8CF3098870473006002004ED00E083
:10146C001EF0040F0CBFEFF30880EFF309808169C5
:10147C0011F8021C0229FFD001B502F06AFD01BD72
:10148C0043B2002B08DB012200F01F0002FA00F02F
:10149C00024A5B0942F82300704700BF00E100E0FC
:1014AC0043B2002B01F10101ACBF03F16043064BC9
:1014BC004FEA4111C9B2ABBF03F5614300F00F0015
:1014CC0083F800131954704714ED00E073B51E46F1
:1014DC000A9B05460093099B8C1802F007FF0B4BE7
:1014EC00A4F1200222F0070223F001039361069B72
:1014FC0016605360079B9360089BD3604FF080731A
:10150C00D3610023AA646B6602B070BD5D3C010020
:10151C00F8B51E4605460C4617460023E1EE103A78
:10152C0000F0D6F90A4BE219284622F007049D6018
:10153C0002F01AFD304684F30988002163B681F36A
:10154C001188BFF36F8F0022002302F081FB00BFD4
:10155C0030060020014910220A60704710ED00E0AF
:10156C00404080F3118830BF704700BFEFF3088014
:10157C00EFF30981724601B500F0D2F801BD00BF4E
:10158C0030BFFFF7FDBF00BF114A08B5114B22F069
:10159C007F029A60BFF34F8FBFF36F8FD3F8882011
:1015AC0042F4A002C3F888200B4A536823F040434E
:1015BC005360BFF34F8FBFF36F8F0023E1EE103AF0
:1015CC0000F000FE00F008FE00F050F900F042FEC2
:1015DC000002010000ED00E030EF00E001B572B652
:1015EC000B4A106A00281EBF0021116202F0C9FDCF
:1015FC0062B6EFF30580A0F110004FEAC000054978
:10160C00014409C99847BDE8014003490847000057
:10161C0030060020A4430100C913010002F023FB93
:10162C00202080F3118808484FF40061401880F3A3
:10163C000988EFF314800221084380F31488BFF368
:10164C006F8FFFF7A1FF0000D00B00200C4B9A6AA4
:10165C009A6A9A6A920708D55A6B9A6A120604D546
:10166C0018B19A6A22F080029A620020044B9A6A9E
:10167C009A6A9A6A9A6A42F0FF029A6208707047F4
:10168C0000ED00E00D4B9A6A9A6A9A6A920508D5A9
:10169C009A6B9A6A120404D518B19A6A22F4004221
:1016AC009A620020054B9A6A9A6AD20558BF9A6AC8
:1016BC009A6A42F47F429A620870704700ED00E02B
:1016CC00074B00209A6A9A6A9A6A9A6A9A6A9A6A84
:1016DC009A6A9A6A6FEA02426FEA12429A627047F9
:1016EC0000ED00E00D4B9A695A695A69D0070FD486
:1016FC005A6991070CD45A69520709D45A691007D0
:10170C0006D45A69D10603D45A69920658BF5A694D
:10171C005A6942F0FF025A61704700BFD0ED00E0F9
:10172C00F0B5414B00255B688BB0C3F3080385F320
:10173C001188BFF36F8F02F07F44B4F17F4F1ED13D
:10174C0012F001041AD0560602F0080467D482F095
:10175C000402C2F3800564B1EFF389860022033BD7
:10176C008DF80720042B4BD8DFE803F00B4C5041CD
:10177C004800EFF38886F1E70E46EFE725462E4644
:10178C00ECE7294BDA6A92073AD4DC6A14F080440D
:10179C0008D028331B78EBB101200DF10701FFF7BE
:1017AC0055FF04469DF8073093B92022314602A814
:1017BC0002F03FFC099B6DB3C3F3080222B96FEA38
:1017CC0053236FEA43230993204602A902F0BFFB7F
:1017DC000BB0F0BD154B1B782BB101200DF107019F
:1017EC00FFF750FFDDE7124B1F88BFB217B1FFF7B1
:1017FC0067FFD6E70F4B5C69002CD3D0FFF772FF65
:10180C000024CFE700200DF10701C8E700200DF1FF
:10181C000701E5E723F4FF7323F00103D3E7002C62
:10182C00AAD10646012599E700ED00E029ED00E07C
:10183C002AED00E0D0ED00E0024A536943F01003BA
:10184C005361704700ED00E0BFF34F8F0549064B25
:10185C00CA6802F4E0621343CB60BFF34F8F00BF42
:10186C00FDE700BF00ED00E00400FA050023202195
:10187C000348C2180133412B82F80013F9D1704789
:10188C0000E100E038B504464FF02003EFF311857A
:10189C0083F31188BFF36F8F00F0F8FF0A4B9B683E
:1018AC00A3420BD1094B5A68C2F3080212B928465D
:1018BC00FFF792FD5A6842F080525A602846BDE804
:1018CC00384002F096BC00BF3006002000ED00E06E
:1018DC0010B50E4B88B002930D4B0E4C03930E4B70
:1018EC000E4A049302AB019301A82346012100F098
:1018FC0007F9002307930A4B0121E41A05A8059365
:10190C00069400F007F908B010BD00BF00000020DD
:10191C000000000000000120060001000000002073
:10192C000000002010B50B680C7A23F01F0204F0A5
:10193C001F031A43CB68640923F01F03044943EACD
:10194C00440343F001038860CA600B6110BD00BF03
:10195C0090ED00E02DE9F04F07468846144600262E
:10196C004A4D85B046450BDA57F82630D3F804902B
:10197C00B9F1000F3AD0B9F11F0F05D86FF015046B
:10198C00204605B0BDE8F08F19F01F0FF6D1D3F843
:10199C0000A01AF01F0FF1D1504602F00DFB834648
:1019AC0009EB0A00013802F007FB8345E6D11BF175
:1019BC00160FE3D0631E5B45E0DBC5F808B0E868A2
:1019CC00C5F808B02B6957F8261020F01F0043F01B
:1019DC001F0AD1E900321A44984202F1FF3918D19A
:1019EC00CA4505D15FFA8BF002F0C6FA0136B9E7A9
:1019FC00C5F808B0EB6822F01F0203F01F031A436E
:101A0C00EA60E0B202F0B8FA10F1160FB6D0441C3E
:101A1C00ECE7C5F808B02A69013B23F01F0302F07C
:101A2C001F021343CA45E0B22B61EBD002F0A4FABB
:101A3C0010F1160FA2D0C5F808B0EA689DF808306E
:101A4C000AF1FF3A62F304038DF808302B699DF814
:101A5C0008205B0863F3471257F826308DF80820EE
:101A6C00D3E900130B44009323F01F0301305344BC
:101A7C00A3EB0903C0B223F01F030F2803933FF617
:101A8C007DAF6946FFF74EFFC1E700BF90ED00E068
:101A9C000522034B5A60BFF34F8FBFF36F8F704714
:101AAC0090ED00E0BFF35F8F0022014B5A6070474E
:101ABC0090ED00E038B50E4C2568102D14D8FFF7CA
:101ACC00F1FF00200B4B0C4A1A63854205D10B4BDE
:101ADC001D70FFF7DDFF002038BD616801EB0011C0
:101AEC00FFF720FF0130F0E74FF0FF30F4E700BFC5
:101AFC008447010090ED00E0AAFF44008C06002012
:101B0C0010B5034C2278FFF725FF207010BD00BFE5
:101B1C008C0600202DE9F74F264D8A4606464FF0DD
:101B2C000008AB46244FD0451BDAD6F80490B9F127
:101B3C00000F39D031680846019102F03DFA019945
:101B4C00044609EB0100013802F036FA84424FF0EA
:101B5C0014021A4B08D06FF0150302FB08F84BF86F
:101B6C00083003B0BDE8F08F14F1160F2C60F8D0DC
:101B7C001978A142F5DD02FB08B0BC60BC60FC68C2
:101B8C0000F10801007B64F30400087138690C79DA
:101B9C00400860F347140C71F96821F01F0169606B
:101BAC00396921F01F01296108F1010814350C363F
:101BBC00B9E700BF4405002090ED00E08C06002042
:101BCC0070B50C4B0D461E780446334600210A4A6C
:101BDC000F2B0BDD094951F8040BFFF7A3FE32461E
:101BEC0029462046BDE87040FFF7B4BE93601161F2
:101BFC000133EDE78C06002090ED00E04405002059
:101C0C0082680C4B9A60036883F38888436883F37B
:101C1C008988027B02F00101EFF3948323F0030324
:101C2C00920748BF43F0020309B143F0010383F369
:101C3C009488704700ED02E0084AD36848B123F459
:101C4C0000531B041B0C43F0BF6343F40033D360FD
:101C5C0070479BB243F40053F5E700BF00ED00E082
:101C6C00084AD36840B19BB243F4804343F0BF634E
:101C7C0043F40033D360704723F480431B041B0CE4
:101C8C00F4E700BF00ED00E0084AD36840B19BB216
:101C9C0043F0080343F0BF6343F40033D360704751
:101CAC0023F008031B041B0CF4E700BF00ED00E05D
:101CBC00034AD2F88C3043F44063C2F88C3070473E
:101CCC0000ED00E0084B1A6818B142F001021A60EE
:101CDC00704722F001021A601A6811B142F0020238
:101CEC00F5E722F00202F2E7D0ED00E0014B1860BC
:101CFC00704700BFF4130020F0B54B79012B2BD0AB
:101D0C00032B26D110268B79032B22D1CC792CB125
:101D1C00012C1ED103689B681B79D3B10A7912B1CF
:101D2C00022A16D10E2205680B68AD68B3F5164F62
:101D3C002D6864D02DD8B3F5165F63D016D8B3F5E3
:101D4C00966F61D00AD8B3F5967F60D0B3F5167F45
:101D5C0060D06FF0220051E00026D4E7B3F5166F87
:101D6C005BD0B3F5965FF4D1364B3CE0B3F5E14F65
:101D7C0056D007D8B3F5615F54D0B3F5964FE8D180
:101D8C00314B30E047F61227BB42E2D14FF400034F
:101D9C0029E0B3F5613F47D013D8B3F5963F46D051
:101DAC0009D84DF6C027BB4243D0B3F5614FD0D113
:101DBC004FF46B0317E0B3F5E13FCAD14FF0EB736F
:101DCC0011E0B3F5612F37D008D8204FBB4236D085
:101DDC00B3F5E12FBDD14FF0E86304E01C4FBB42DB
:101DEC00B7D14FF08053C5F8243534438368224370
:101DFC0003C9C5F86C2583E803000020F0BD4FF43F
:101E0C001D03F0E7134BEEE74FF49E23EBE74FF483
:101E1C00A033E8E74FF41C33E5E74FF41D23E2E76A
:101E2C000D4BE0E70D4BDEE74FF06C73DBE70C4B33
:101E3C00D9E74FF46503D6E74FF07063D3E74FF063
:101E4C008063D0E700B0130000A04E0090D00300D8
:101E5C0040420F000050270000C0750000F03A000F
:101E6C0000903A01026870B59268184B14684FF0F4
:101E7C000052856803219A601D260022C3F8741253
:101E8C00C3F87022C4F80C651C26C4F814654FF016
:101E9C0000669E60C3F86C12C3F868221B23C4F85A
:101EAC0008351A232946C4F81035FFF725FF58B911
:101EBC000823C4F800351D440123C4F81001C4F8EC
:101ECC003455C4F83835236070BD00BF00258450EC
:101EDC002DE9F0430025214C214E54F8048CDFF8F9
:101EEC00889085B0A84503D8002005B0BDE8F083E4
:101EFC00636A96E807001F6801AB83E807000C22B1
:101F0C001946384602F06EF890B98FB1636A2169B0
:101F1C001B681A6991420BD19A69A169914207D841
:101F2C00E169914204D962695B6932EA03030AD020
:101F3C00276A67B10B4801F07EFE404080F31188A0
:101F4C004FF0040002DFE36801351C44CAE7484641
:101F5C0001F071FE636A1F60F5E700BF3C040100ED
:101F6C0030460100E74B0100104C0100064B18688D
:101F7C00043B1B68092B05D1013801288CBF0020BC
:101F8C0001207047002070473401FF00054B186892
:101F9C00043B1B68092B03D1431E58425841704720
:101FAC00002070473401FF004E4A08B5136843F017
:101FBC0002031360FFF7DAFF30B14FF05023002219
:101FCC00C3F81421C3F81821FFF7E0FF30B1012347
:101FDC00454A1360A2F63822C2F87835434B1B6889
:101FEC00092B07D1424B1B68022B02BF0122414B2C
:101FFC00C3F87825FFF7CAFF10B10E223E4B1A60CA
:10200C00FFF7B4FF20B100223C4B1A6001225A604A
:10201C000022D30003F57F03D3F80013013108D05D
:10202C00D3F800130132D3F80433B2F5807F0B6080
:10203C00EFD1334BDA69D1073BD5324B1946D3F884
:10204C000024012AFBD1C3F80425D1F80034012B5C
:10205C00FBD12B4BDA69D20708D5DA69294922F072
:10206C000102DA61D1F80024012AFBD11A6A01328B
:10207C000AD11A6A22F0FF0242F020021A62214AA7
:10208C00D2F80034012BFBD100221E4BC3F80425DF
:10209C00D3F80024012AFBD1BFF34F8F1A491B4BF5
:1020AC00CA6802F4E0621343CB60BFF34F8F00BFEA
:1020BC00FDE71B6A0133C0D0134BD3F88C2042F4DC
:1020CC004062C3F88C20D3F8882042F47002C3F825
:1020DC008820BFF34F8FBFF36F8F0D4B0D4A1A60E3
:1020EC0008BD00BFD0ED00E0384A00503001FF00C1
:1020FC003401FF0000400050E4AE03500C47005088
:10210C000080FF000090035000ED00E00400FA0591
:10211C00041400200090D00370B50026084B53F82F
:10212C002040013053F82050A54200D870BD2368E0
:10213C0020465B68984700B166600C34F4E700BF3A
:10214C00C8470100104B70B505461E460F4C9C420B
:10215C0004D10E4CB44209D1002412E062681AB1C9
:10216C0022681268AA420CD00C34F0E763680BB9F1
:10217C000C34EFE723682846196801F027FF002884
:10218C00F6D1204670BD00BFC814002050140020AA
:10219C0008B50B4D4FF02002EFF3118382F3118839
:1021AC00BFF36F8F02F0C7F8012104460228D8BF95
:1021BC00084602F0D0F82C62FFF7D2F9EAE700BF2C
:1021CC00300600200248034A0021121A01F05CBFBD
:1021DC00000000209006002008B50648064A074972
:1021EC00121A01F026FFBDE80840054A05490648C9
:1021FC0001F01FBFD01300202C150020A44C0100AF
:10220C0000000000A44C010000000020012208B5D1
:10221C000B4B02201A70FFF77FFF0A4A0A490B4842
:10222C0001F009FD0320FFF777FF00F083FC01F0BC
:10223C00A5FC074A137B23F00103137308BD00BFF1
:10224C008D060020E64801004E4C01006C4C01004C
:10225C00C405002080B5374BA2B083F30888002555
:10226C00E023354C012784F82230E5772576657616
:10227C00A576E576636A314E43F4E0236362636AC4
:10228C0043F400236362A563FFF7D6FAFFF762F904
:10229C004FF0FF33A362E36207AB6C22294618466A
:1022AC0001F0F2FE264C8DF82970A0602846FFF74D
:1022BC0033FF3846FFF730FF00F0EEFB214B666230
:1022CC004FF48062CDE9047330461F4BCDE90255C3
:1022DC00CDE900551D4900F015FC737B23F0040279
:1022EC0013F01B0F727304D1B36913B9304600F0AD
:1022FC0019FA174B012205930F23CDE90332002362
:10230C00144D4FF4A0722846CDE9013312490093C5
:10231C00124B00F0F7FB6B7B4FF4806223F004034D
:10232C006B730F4B0949C4E906330448064BE5604F
:10233C00FFF7EEF8D013002000ED00E0C4050020FC
:10234C0030060020934C0100192201009006002059
:10235C00984C010058050020900A00209D21010096
:10236C004806002070B50E4B0E4CA34201D3002042
:10237C0070BDD3E9030141EA000212F003020BD154
:10238C009D685A61AA4201D11C33EEE75E690132A5
:10239C000E6059610144F5E76FF01500E8E700BFE6
:1023AC00C8140020C814002010B50C464FF02003B0
:1023BC00EFF3118183F31188BFF36F8F43695BB126
:1023CC0023601B684361836901338361002081F3BF
:1023DC001188BFF36F8F0EE01AB96FF00B002260FB
:1023EC00F5E713460246044800F000FB18B9034B0E
:1023FC009B685B69236010BD8E06002030060020B0
:10240C0070B504460D464FF02003EFF3118683F3AD
:10241C001188BFF36F8F01F03CFF80B100212A6857
:10242C0081664261427BD20603D183690BB900F00D
:10243C0079F93146BDE87040074801F0CFBE2B68F2
:10244C0062691A602B686361A369013BA36186F31F
:10245C001188BFF36F8F70BD8E060020F8B504464F
:10246C000E464FF02003EFF3118783F31188BFF36F
:10247C006F8FC368304A5BB180689168884215D011
:10248C00B6B987F31188BFF36F8F6FF00F000CE0B4
:10249C00916891F90E100133E36093682161A36098
:1024AC0087F31188BFF36F8F0020F8BD2169F2E725
:1024BC0090F90E3091F90E209A42A8BF1A4622EAE2
:1024CC00E2718B422BDD00F0A5FA0546334622461D
:1024DC0039461A4800F08AFA0028E6D04FF020035B
:1024EC00EFF3118683F31188BFF36F8F2368216993
:1024FC009C4207D033B193F90E309942A8BF1946CC
:10250C0021EAE171A06890F90E30994209D16DB1C0
:10251C0031460A4801F062FE6FF00A00C5E700255B
:10252C00D4E700F077FA0028F2D1F0E786F31188AF
:10253C00BFF36F8FF0E700BF300600208E0600203F
:10254C0038B583680446002B3BD0214A92689342ED
:10255C003AD1DA7B013ADA73C368012B05D0013B1F
:10256C00C36000F0C3F8002038BD4FF02003EFF338
:10257C00118583F31188BFF36F8F0169806890F91F
:10258C000E30994201D000F045FA204601F081FE50
:10259C00A06080B190F90E20226100228266427BFD
:1025AC00D20603D183690BB900F0BCF8294609485F
:1025BC0001F014FED5E7E06085F31188BFF36F8F4F
:1025CC00CFE76FF01500CFE74FF0FF30CCE700BF3F
:1025DC00300600208E06002010B5084C23685BB135
:1025EC00FEF7EAFB2268064910440861BDE810407A
:1025FC000021104601F0AFBE10BD00BF68060020E0
:10260C0030060020F8B50C464FF02003EFF311858F
:10261C0083F31188BFF36F8F4FF4004140F2E7361C
:10262C0000270022E1FB0067094B30461A6139464E
:10263C004FF47A720023FDF7FBFE064B1860064B35
:10264C001C60FFF7C9FF85F31188BFF36F8FF8BDCE
:10265C003006002068060020640600204FF020039E
:10266C00EFF3118183F31188BFF36F8F044B9A68DA
:10267C00D37B013BD37381F31188BFF36F8F70470A
:10268C0030060020094B03F12802824205D19B68D9
:10269C008B4202D14B7BDB0606D1D1E900321360B1
:1026AC005A600023C1E90033704700BF3006002098
:1026BC0038B50D4C024604F1280001F0B0FD05467A
:1026CC0000B9E568A3684AB95A7BD20606D1AA6953
:1026DC0022B9DA897F2A01D9636238BD9D4201D0C3
:1026EC00FFF77AFF6562F8E73006002010B54FF06F
:1026FC002003EFF3118483F31188BFF36F8F084B22
:10270C0000209A68D37B0133D373FFF7D1FF84F396
:10271C001188BFF36F8FBDE8104001F076BD00BF8C
:10272C0030060020F8B54FF02003EFF3118583F34A
:10273C001188BFF36F8F164A114651F8283FD46A9F
:10274C008B4208BF0023002B38BF0023D3B190F974
:10275C000E7093F90E60B74203DB9C4212D01B68DB
:10276C00F4E75A68C0E9003210605860437B63F0AC
:10277C007F0343730020FFF79BFF85F31188BFF3A2
:10278C006F8FF8BDC0E90014D36A1860D062EDE712
:10279C00300600200146F8B54FF02003EFF311840A
:1027AC0083F31188BFF36F8F90F90D30002B02DA91
:1027BC001948FFF767FF194A104650F8283FD56AA9
:1027CC00834208BF0023002B38BF0023EBB191F9E3
:1027DC000E7093F90E60B74203DB9D4215D01B6857
:1027EC00F4E75868C1E90030016059604B7B906890
:1027FC0063F07F034B73431A58425841FFF758FF5D
:10280C0084F31188BFF36F8FF8BDC1E90005D36A5B
:10281C001960D162EAE700BF58060020300600209C
:10282C0038B5154A154B146801469868A0421C46E9
:10283C0003D1BDE83840FFF7CFBE00251560104A24
:10284C001268B2B1C2897F2A13D80E4A90F90E5081
:10285C00126895420DDB0C4A90420AD0826942B94B
:10286C001A698A4202DCFFF795FFE2E7521A1A61F5
:10287C0038BD00232361FBE76006002030060020F2
:10288C00680600206406002058050020036D70B512
:10289C00044603B1984704F1180001F036FD4FF0DF
:1028AC002003EFF3118683F31188BFF36F8F20465B
:1028BC0001F08BFC0546D8B194F90D30002B07DAEA
:1028CC0021461248FFF7DEFE637B03F07F03637340
:1028DC000F4B9868021B50425041FFF7E9FE637B97
:1028EC0043F00803637386F31188BFF36F8F70BDD9
:1028FC00637B9B07F3D52146A068FFF7C3FE637B80
:10290C00A56023F002036373E9E700BF58060020BB
:10291C0030060020014610B54FF02003EFF3118470
:10292C0083F31188BFF36F8F90F90D30002B06DA0B
:10293C000948FFF7A7FE4B7B03F07F034B73074B54
:10294C009868431A58425841FFF7B2FE84F3118835
:10295C00BFF36F8F10BD00BF58060020300600205B
:10296C0070B504460D461646FFF7D4FF637B43F063
:10297C0002036373C5B12B68A5609D4208BF002399
:10298C00002B38BF00233BB394F90E1093F90E20A3
:10299C00914204DB6A689A421ED01B68F3E75A68BE
:1029AC00C4E9003214605C60731C1CD04FF4004509
:1029BC0040F2E730002126EAE6764FF47A72C5FB46
:1029CC0006010023FDF734FD0749421C04F11800F1
:1029DC00BDE8704000F042B96B68256063606B68BD
:1029EC001C606C60E0E770BD3F42010010B50C4606
:1029FC001146064A9068064A10601A46FFF7B0FF67
:102A0C002046BDE81040FEF7E7BC00BF30060020B2
:102A1C00600600202DE9F04104464FF02003EFF34F
:102A2C00118883F31188BFF36F8F01F0CEFB07463B
:102A3C004DB260B3174E214606F12800FFF722FE77
:102A4C00B36AF26A834208BF0023002B38BF00230D
:102A5C00A573B3B193F90E10A94203DC934210D0C5
:102A6C001B68F6E75A68C4E9003214605C60012008
:102A7C00FFF71EFE88F31188BFF36F8F3846BDE851
:102A8C00F081C4E90002F36A1C60F462EFE7A573FD
:102A9C00F0E700BF300600200021044B084603F18C
:102AAC002802C3E90A22FFF7ADBD00BF30060020A3
:102ABC00014B9868704700BF3006002010B54FF0EE
:102ACC002002EFF3118482F31188BFF36F8F427BE6
:102ADC00510704D484F31188BFF36F8F10BD22F01B
:102AEC00040112F01B0F417303D183690BB9FFF77B
:102AFC0019FE2146BDE81040014801F06FBB00BF34
:102B0C008E06002030B587B00E9D044604950D9DB1
:102B1C0003950C9D02950B9D01950A9D0095FEF762
:102B2C00D5FC034B9B6803B11B6E236607B030BD0D
:102B3C00300600202DE9F04F284E294DB04687B0C5
:102B4C00B54205F1300410D3FFF788FD4FF400496E
:102B5C0040F2E7360027224CDFF888A0444521D309
:102B6C0007B0BDE8F04FFFF7C1BD54F8043C059326
:102B7C0054F8103C049354F8143C039354F8183C48
:102B8C00029354F81C3C019354F8203C009354E9F4
:102B9C000A2354E90C01FFF7B5FF54F8303CDD640F
:102BAC002546CDE7616A4B1C04D0256821B928461F
:102BBC00FFF784FF3034D1E7B346BC46E9FB01BCD8
:102BCC004FF47A72002358466146FDF731FC5146AA
:102BDC00421C05F1180000F041F8EBE7C814002086
:102BEC00C81400203F420100034B1B680BB9FEF7D1
:102BFC00E3B80020704700BF6C060020036840B1AA
:102C0C00074A5268904204D01BB19A6881680A4402
:102C1C009A60426813605A600023C0E90033704721
:102C2C00081400200B4B10B51C689C4208BF0024F4
:102C3C00FFF7DAFF54B1A368181A20EAE070064BCC
:102C4C001B6913B19842A8BF184610BD6FF0004025
:102C5C00F5E700BF081400203006002070B50446CC
:102C6C001646C1604FF02003EFF3118583F31188F2
:102C7C00BFF36F8FFFF7B8FF012EACBF8019013087
:102C8C00164BA0601A689A4201D05E6832B95A6835
:102C9C00236062605A6814605C600AE09068A16806
:102CAC00884215DD411A91605168C4E900210C601D
:102CBC0054601A689A4206D0944204D1FFF7B2FFCE
:102CCC000021FEF723F885F31188BFF36F8F70BDD9
:102CDC00091A9642A160DAD01268D7E708140020CE
:102CEC002DE9F0470646FFF79BFD4FF02003EFF36D
:102CFC00118483F31188BFF36F8FDFF884801F4D2D
:102D0C00C146DFF880A02E60DAF800002A68504532
:102D1C00D8E9006705D020B18368934213DD9B1A74
:102D2C008360B61847EBE277C9E9006700262E608E
:102D3C00FFF778FF3146FDF7E9FF84F31188BFF305
:102D4C006F8FBDE8F087F61847EBE377D31A2B604B
:102D5C0000238360C8E90067FFF750FF84F31188F4
:102D6C00BFF36F8FC36898474FF02003EFF31184C4
:102D7C0083F31188BFF36F8FC6E700BF6C0600208A
:102D8C00000000200814002038B5074C074DAC4259
:102D9C0001D3002038BD04F114032046C4E90533E7
:102DAC0000F0F3FE1C34F2E7C8140020C814002015
:102DBC0001F028B90A46002101F066B910B5114896
:102DCC0000F048F800B110BD0F4800F043F800289F
:102DDC00F9D10E4C204600F03DF80028F3D10C4BF5
:102DEC000C481C6000F036F801460028EBD100F0CE
:102DFC002DF8044608B1204610BD00F051F82046CD
:102E0C00FAE700BF1C140020101400201814002036
:102E1C00201400201414002008B5084800F024F8F1
:102E2C00074800F021F8074800F01EF8064800F0AB
:102E3C001BF8BDE8084000F00BB800BF1C140020C4
:102E4C0010140020181400201414002000207047C7
:102E5C00704700BF08B5034B02681B6810689847A1
:102E6C00002008BD2C14002008B5034B02685B68D9
:102E7C0010689847002008BD2C1400200268024BF3
:102E8C0010689B68184700BF2C14002008B5034B32
:102E9C000268DB6810689847002008BD2C140020DD
:102EAC0070B5094C094D2069AB68984718B1084BAF
:102EBC0008485B6898470021074AEB681160206955
:102ECC00BDE87040184700BF3C1400202C140020B3
:102EDC0024140020E047010070060020F8B51A4CBD
:102EEC001A4D0746AB6820699847E8B9184E336805
:102EFC007FB93BB90120174A1749C2F800050A6887
:102F0C00002AFCD101333360EB682069984700201C
:102F1C00F8BD002BF8D0012B08D0013B33602069A1
:102F2C00EB6898470020F3E70C48F8BD0A4A136891
:102F3C00002BFCD1074A6FF07E40C2F8003500F040
:102F4C0021F83368E9E700BF3C1400202C14002062
:102F5C00700600200000845010198450E98FFFFF88
:102F6C000020704700207047430503D54FF0FF3217
:102F7C00024B1A60024B1860704700BF0811845056
:102F8C00081A8450014B1860704700BF041A845013
:102F9C0008B100F003B84FF47500704702460748BB
:102FAC0003681342FCD021B1054B06481B680B602B
:102FBC000360054B00201A60704700BF001A845054
:102FCC000411845008118450081A845000F0A0B8E1
:102FDC0030B129B100230144037001308142FBD18F
:102FEC00704700BF2DE9F041ADF51A7D0F460592F3
:102FFC000021144612A84FF408721E4601F044F842
:10300C00002308A819462822069301F03DF8002F4A
:10301C003CD0002E3AD0002C38D0042106A8FFF763
:10302C00C9FE08A82821FFF7C5FE08A800F032F851
:10303C0078B14FF0FF3512A84FF40871FFF7C8FFB5
:10304C0006A80421FFF7C4FF28460DF51A7DBDE83C
:10305C00F08112AB0DF11C080390CDE9016302461F
:10306C0005AB08A9CDF8008006A800F0E9FC002803
:10307C00DFD13368A342DCD3D8F800100546083101
:10308C0038462246FFF794FE3460D4E74FF0FF3504
:10309C00DAE700BF1C2330B583B002A941F8043D28
:1030AC00044600F0B1F90546D8B9019B1C2B1BD185
:1030BC00D4E9003201210033E16118BF01230AB1C8
:1030CC0043F00203A26832B9E268AAB9C4E9083233
:1030DC003BB90D4D09E0E26843F0040362B9C4E961
:1030EC000832284603B030BD084D20461C21FFF79E
:1030FC0061FE284603B030BD0022284643F0080389
:10310C00C4E9083203B030BD0E0CF000370CF000EF
:10311C0010B50C4C236813B10B4B1B686BB900F04A
:10312C0031F938B10138062896BF084B084853F8D6
:10313C00200010BD0122044B1A60012300202360E3
:10314C0010BD00BF74060020780600200048010066
:10315C00FE8FFFFF10B5094C23681BB10123002023
:10316C00236010BD00F07CF80028F7D00138062849
:10317C0096BF034B034853F8200010BD7406002083
:10318C0000480100FE8FFFFFBFF34F8F0549064B30
:10319C00CA6802F4E0621343CB60BFF34F8F00BFE9
:1031AC00FDE700BF00ED00E00400FA05014B5B6891
:1031BC00184700BF24140020024BD0E90012C3E9C9
:1031CC000012704724140020704700BF10B504464D
:1031DC0020B1BFF35F8F0020206010BD0348FFF7C4
:1031EC00E5FFBFF35F8F0020206010BD4048010059
:1031FC0010B5044610B10023236010BD0248FFF740
:10320C00D5FF0023236010BD1C48010050B10122E2
:10321C00D0E8EF3FC0E8E12F0029F9D1012BF7D01E
:10322C00BFF35F8F0020704770B40B4B0668C26809
:10323C00D0E90154C3E90242C3E90065D1E90302B4
:10324C000E68064BD1E90154C3E90065C3E902409D
:10325C001A6170BC704700BF2C1400203C14002075
:10326C0010B5FFF77DFE70B9FFF7A8FD80B9FFF729
:10327C0035FE80B9114B1B681B0EF02B0DD00624AC
:10328C00FFF770FE00E00324FFF7C6FD204610BDDB
:10329C000424204610BD0024F2E7094A094B1268A9
:1032AC009A4201D00724EBE70120FFF717FE002814
:1032BC00F1D1054B04461860E8E700BF281984508B
:1032CC00241A84500000E0200C1A845030B5ADF55F
:1032DC00157D4FF4087200210CA800F0D5FE0023D8
:1032EC0002A819462822019300F0CEFE02A8FFF78F
:1032FC00D1FE18B105200DF5157D30BD1C4D4FF0DC
:10330C00FF312868FFF7BAFD0446F0B90020FFF73B
:10331C00E5FDB0B90CAA02A901A800F0D5FB044642
:10332C000120FFF7DBFDF0B92868FFF7AFFD10B106
:10333C001048FFF73BFF2046002CDBD10DF5157D27
:10334C0030BD0D48FFF732FFE4E70C48FFF72EFFC6
:10335C00012CDBD12868FFF799FD0028CAD005485D
:10336C00FFF724FFC6E70648FFF720FFDCE700BFA6
:10337C0020140020784801009048010060480100AA
:10338C00B048010008B5FFF7EBFD18B1FFF744FD9D
:10339C00032008BDFFF712FD68B9FFF79FFD60B968
:1033AC00154B1B681B0EF02B12D0FFF7DBFDFFF744
:1033BC0033FD062008BD042008BDFFF7D3FDFFF741
:1033CC002BFDFFF783FF00280CBF0020052008BD54
:1033DC000A4A0B4B12689A4205D0FFF7C3FDFFF760
:1033EC001BFD072008BD0120FFF778FD0028E4D164
:1033FC00044B1860E5E700BF28198450241A845048
:10340C000000E0200C1A845018B111B10B681C2B71
:10341C0001D0012070474FF47F033A4AD3F8101CB7
:10342C0091425AD0D3F8102C013256D0D3F8102C2C
:10343C004FF47F030260D3F8141C334A91425ED0E0
:10344C00D3F8142C01325AD0D3F8142C4FF47F0338
:10345C004260D3F8182C12F5947F4DD0D3F8182C69
:10346C00013249D0D3F8182C4FF47F038260D3F883
:10347C001C1C264A91423CD0D3F81C2C013238D06B
:10348C00D3F81C2C4FF47F03C260D3F8002C70329D
:10349C002DD0D3F8002C013229D0D3F8002C4FF4C6
:1034AC007F030261D3F8042CAF321ED0D3F8042C66
:1034BC0001321AD0D3F8042C4FF47F034261D3F8B5
:1034CC00081C134A91420BD0D3F8082C013207D0B8
:1034DC00D3F8083C83610020704740F6FC02A7E754
:1034EC0040F237338361002070475122E4E7902289
:1034FC00D5E742F60412C5E740F6D862B4E742F2CB
:10350C00D002A3E7FCF8FFFFD020FFFF0429FFFF48
:10351C0037F3FFFFA8B32DE9F0414C1EB4F5047F3F
:10352C002CD25BB352B34FF0000CC900E646654693
:10353C0064464F1E03F1FF380CE0AB4216D08E45AB
:10354C0001D10CF1010CA84516D00134BC4205F197
:10355C00010518D8610950F8211004F01F06F1403C
:10356C001F2E18BF01F00101002CE6D10025A84543
:10357C008E464FF0010CE8D16245E6D20348BDE817
:10358C00F081024870470020BDE8F081370CF10053
:10359C002DE9F04F8FB00D46DDE919418346002926
:1035AC0057D12969039100211C60189B1960002ACE
:1035BC0000F02281814A824B11686A6A1B689A4228
:1035CC0057D10A2955D19BF803300693039904234C
:1035DC0008467C4A0293A2FB00029208CB0002EB45
:1035EC00420204F10800A1EB4202013BDFF8D0914A
:1035FC00DFF800A2049000920593189B039C1C60BA
:10360C00002C00F0CC800026049F00F0A9FA0023C7
:10361C000793069BBBF1000F3AD0002D34D053BB5F
:10362C005B000693BBF1000F36D0002D34D0E3B114
:10363C0006A9284600F084FA002800F07D81624B30
:10364C00984212D0009000F08BFA00980FB0BDE8B1
:10365C00F08F4FF47F01D1F80C0C01300CBF4FF4FC
:10366C000471D1F80C1C03919DE72B6A73B9564871
:10367C00E8E75648E6E706A9284600F061FA68B183
:10368C00534B9842DED0069B082BC9D15148D9E741
:10369C00082BFBD05B0006934F48D3E729460698CE
:1036AC0000F030FA0028EBD1069B082B00F00E81BD
:1036BC00042B00F03181A3F10203B3FA83F35B090D
:1036CC00019301231946454A136042F8843C434B4D
:1036DC0019606B6AC9F80030D9F800206B6A9A42FD
:1036EC00F5D14FF000084FF0FF30CAF80080FFF71B
:1036FC003BFC3B4A3B4B40461A60FFF743FC0A221B
:10370C00019839492D4B08601A602A69A8F155387F
:10371C00A8FB02126B6A120903EB4303DB0303FBE6
:10372C0002F3324A9B0913600123CAF80030069950
:10373C00DBF800200B0243EA016322F07F421343C3
:10374C00CBF8003007A800F0CDF9002898D1284B11
:10375C00A8FB04281A681433089253F8102CB6EB03
:10376C00980F099253F80C2C0A9253F8082C0B92D0
:10377C0053F8042C0C921B680D9301D1009B9BB940
:10378C003846182208A9FFF713FB183C18370136E6
:10379C00002C7FF43AAF049B002B40F09A8000235E
:1037AC00189A1360069B6FE71A46384608A9E41A64
:1037BC00FFF7FEFA009B1F44E9E700BF3811845065
:1037CC0030118450ABAAAAAA310CF100300CF100D4
:1037DC00020CF100320CF100350CF100C4118450D4
:1037EC00FEFFFF0F001184500C118450D81184502F
:1037FC00141184502C118450BBF1000F3FF44CAFCA
:10380C00002D3FF449AF01230EA941F8203DCBF820
:10381C000020284600F094F900287FF413AF2946C5
:10382C00069800F06FF900287FF40CAF069F082F64
:10383C0000F0EB80042F00F0EA80A7F10207B7FA42
:10384C0087F77F0901221646734B74491A60184694
:10385C000A60943B06606A6A1A6019686A6A914247
:10386C00F8D14FF000086E4B4FF0FF30C3F80080DA
:10387C00FFF77AFB6B4B6C4A40461A60FFF782FBF2
:10388C000A226A496A4B0F601A601A992B6901293E
:10389C006A6A00F0B1806749A1FB03131B0901217F
:1038AC0002EB4202D20303FB02F3634A9B0913604F
:1038BC005B4B19600699DBF800200B0243EA0163AD
:1038CC0022F07F421343CBF800307FE603230193B1
:1038DC00F7E6039BB3F5047F3FF661AFDDE9047CAB
:1038EC00204623466E6904E00120013363451446EB
:1038FC0015D85A0957F8222003F01F01CA401F2976
:10390C0018BF02F00102002BEED0A242ECD1013024
:10391C008642EAD149480BE002230193D1E64FF4E9
:10392C008063DDE90310AA69FFF7F4FD00285DD080
:10393C000023189A1360A3E62946069800F0E2F8D3
:10394C0000287FF47CAE069C082C51D0042C51D05E
:10395C00A4F10204B4FA84F4640901231E46194646
:10396C002D4A136042F8843C2B4B19606B6AC9F8E2
:10397C000030D9F800206B6A9A42F5D100274FF03D
:10398C00FF30CAF80070FFF7EFFA264B264A38468C
:10399C001A60FFF7F7FA0A222449254B0C601A60CB
:1039AC002A6924496B6AA1FB021203EB4303120937
:1039BC00DB0303FB02F3204A9B091360CAF8006087
:1039CC00069BDBF800101A0242EA036321F07F42E7
:1039DC001A43130A03F47F03134323F07F43CBF8FA
:1039EC000030029B013B02937FF407AE002029E6D6
:1039FC000324B2E70224B0E74FF47F03D3F80C1C86
:103A0C00013106D0D3F80C3C45E703271AE702270F
:103A1C0018E7162343E700BFC411845040118450AB
:103A2C002C11845000118450FEFFFF0F0C11845098
:103A3C0038118450ABAAAAAAD8118450360CF100C4
:103A4C002DE9F0431B4C85B00746DDE90D56884641
:103A5C0020684FF0FF319146FFF710FA28BB002089
:103A6C00FFF73CFAE8B90023CDE9005602934A4629
:103A7C00414638460C9BFFF78BFD05460120FFF7AE
:103A8C002DFA50B92068FFF701FA10B10A48FFF778
:103A9C008DFB284605B0BDE8F0830848FFF786FB90
:103AAC00F0E70748FFF782FBDDE70648FFF77EFBF0
:103ABC00D5E700BF2014002078480100B048010071
:103ACC00904801006048010010B5012486B005AB98
:103ADC00CDE901240093002204ABFFF759FD06B099
:103AEC0010BD00BF08B501464FF48060FFF750FAD7
:103AFC0000230249024A0B60136008BDC8118450B0
:103B0C002C1184500138072815D8DFE800F0100C70
:103B1C00140814141404CB6800204B6270478B6893
:103B2C0000204B6270474B6800204B6270470B685B
:103B3C0000204B6270470148704700BF310CF10008
:103B4C000B6802E0082B0B6006D8026A13424FEA9E
:103B5C004303F7D00020704700487047310CF10048
:103B6C0000230449044A0B604FF480601360FFF794
:103B7C00FBB900BF2C118450C411845008B5FDF75B
:103B8C0027FABDE80840FDF7B7B9FF232DE9F04F40
:103B9C004668C372324600234FF00C09078901684E
:103BAC0006FB07FC90F80A806144984505DC00236D
:103BBC0019468F4220DCBDE8F08FBCFBF2F509FB07
:103BCC0003FED0F80CA0202D0AEB0E0404F1040B1C
:103BDC00C4E901BB05D8C372920822F00302013379
:103BEC00E3E715F11F0448BF05F13E0464114AF8E0
:103BFC000E1001EB8401EFE7C268056802F1040CBA
:103C0C00EC1845F803C0956801316560956833443C
:103C1C002C609460CDE70020704770B50D460446CB
:103C2C004520A04729465220A04729462346BDE8F7
:103C3C007040522018470FB407B504A951F8040B73
:103C4C000191FCF793FF03B05DF804EB04B07047EF
:103C5C00044608B5084611461A46A047FEF728FF49
:103C6C00FDF710FE7047FEF79FB90C228368C9B2AE
:103C7C0002FB01314B7A23B9087AB0FA80F0400983
:103C8C007047022070470268F8B597688668CCB216
:103C9C004FF02003EFF3118583F31188BFF36F8F7F
:103CAC000C226243B1180B7A1BB3013BDBB20B72D3
:103CBC0013BBB3503A444B605368B3B90C23012186
:103CCC0003FB0473DA7A1B8902F150221160002283
:103CDC0003F150231A600C21002001FB0464607274
:103CEC0085F31188BFF36F8FF8BD98470028E5D195
:103CFC00F1E76FF04400F3E70020F1E738B50C234F
:103D0C008468054603FB0144012363724FF02003D2
:103D1C00EFF3118183F31188BFF36F8F23682BB1FD
:103D2C0060681A688342226008BF626081F3118860
:103D3C00BFF36F8F03B938BD2846D3E901219047F3
:103D4C00E4E703682DE9F041D0F808C005469F6808
:103D5C00CEB24AB10C2373435CF803309A425CD068
:103D6C0013B11B68002BF9D14FF02003EFF3118036
:103D7C0083F31188BFF36F8F0C2171430CEB01039C
:103D8C001C7A0134E4B21C7280F31188BFF36F8F7C
:103D9C0032B34FF050204FF0030EC0F808E3587ABE
:103DAC00A0B94FF0200EEFF311888EF31188BFF3FA
:103DBC006F8F1060D3F804E0BEF1000F20D15A6071
:103DCC004CF8012088F31188BFF36F8F4FF050230C
:103DDC000321C3F8041318B1D2E9013128469847DE
:103DEC00012C0BD10C237343FB586BB90C21012212
:103DFC0001FB0676B37A03F150231A6000200EE023
:103E0C00CEF800205A60DDE7284698470028EDD10F
:103E1C0031462846FFF772FFF0E76FF00F00BDE860
:103E2C00F0810022FFF78DBF10B50022044601215E
:103E3C000520FDF735FB0520FDF722FB4FF0502345
:103E4C000222C3F8182503220020C3F80423A36818
:103E5C00C3E90000A368C3E9030010BD70477047B5
:103E6C00002307B501A88DF80430FFF7AFF803B0B5
:103E7C005DF804FB902908B5134639D10A46014672
:103E8C000020FFF7AFF8BDE8084071467246734654
:103E9C00B7EE000AF7EE000AB7EE001AF7EE001ABA
:103EAC00B7EE002AF7EE002AB7EE003AF7EE003A2A
:103EBC00B7EE004AF7EE004AB7EE005AF7EE005A9A
:103ECC00B7EE006AF7EE006AB7EE007AF7EE007A0A
:103EDC008EF3008C10B4F1EE10CA4FF66074C0F67D
:103EEC00FF740CEA040CE1EE10CA10BCF4467447E3
:103EFC006FF01500C7E7FEE7FDF738BB43B2A9B179
:103F0C00002B12DB01215B099B0003F1604303F5DD
:103F1C006143D3F8802200F01F0001FA00F022EA7E
:103F2C000000C3F88002D3F880327047002BFCDB12
:103F3C0001225B099B0003F1604303F56143D3F855
:103F4C00801200F01F0002FA00F00843E9E700F0CD
:103F5C0008B90146006800F004B908B5FDF710FB7C
:103F6C00BDE80840FDF72ABA07B5002101A8FDF706
:103F7C0027FE03B05DF804FB30B54B680C6885B0C8
:103F8C000A898D7A0094013B24F01F04234402F02B
:103F9C001F0242EA451223F01F030F2804468DF836
:103FAC000820039305D86946FDF7BCFC204605B0F4
:103FBC0030BD6FF01504F9E740E800F0C3B210F41F
:103FCC00803F14BF18466FF0150070470138013957
:103FDC0010F8013F11F8012F934201D1002BF7D1BA
:103FEC00981A704710B55AB10139841810F8012B82
:103FFC0011F8013FA04201D09A42F7D0D01A10BD5F
:10400C001046FCE7431A934210B500EB020308D3A9
:10401C00024601399A420BD011F8014F02F8014BBC
:10402C00F8E70A4412F8014D8A4203F8014DF9D120
:10403C0010BDF0B581EA0004A50703460BD0013B87
:10404C000A4491421BD1F0BD002AFCD011F8014B5F
:10405C00013A03F8014B9C07F6D122F003041D1F13
:10406C0096080F19B94205D16FF00305234405FBDF
:10407C000622E4E751F804CB45F804CFF2E711F837
:10408C00014B03F8014FDCE7034670B5C9B29C073E
:10409C0011D141EA012422F0030644EA04451E44EE
:1040AC009408B3420DD16FF0030505FB04221A44AA
:1040BC00934209D170BD002AFCD003F8011B013AD0
:1040CC00E5E743F8045BECE703F8011BF0E74FF07E
:1040DC00FF3070470B46826892E8030083E80300C8
:1040EC000020704703689B681B68D3F88004C3F8F2
:1040FC0080047047036882689B681B68D3F81001C2
:10410C0038B1127A00200A700122C3F810011A602B
:10411C0070474FF0FF3070470022036882B09B68F5
:10412C008DF807101B68C3F820210DF10702C3F8A6
:10413C0044250122C3F848259A60D3F820110029A0
:10414C00FBD0DA6002B07047002008B5FDF77CFBAD
:10415C0008B5FDF79DF8FDF71BF9BDE80840FEF723
:10416C00F9BF37B505460191FEF7A2FC019904464B
:10417C002846FFF7E9FF204603B0BDE83040FDF7C5
:10418C0081BBFFF76CBE30B50024846141EA0204A8
:10419C0014F00304C0E9023201610CD14461A34262
:1041AC0003D1C0E90000002030BD456901340D6029
:1041BC0041611144F3E76FF01500F5E70023C0E906
:1041CC000000C0E9023318467047437BDB0603BF8F
:1041DC008069B0FA80F040090020704721B9EFF3F4
:1041EC00058008B9FDF7F8B881F31188BFF36F8F1C
:1041FC007047034620B9EFF305820AB9FDF7ECB816
:10420C0083F31188BFF36F8F70474FF02003EFF3E8
:10421C00118083F31188BFF36F8FFFF7EABF036838
:10422C00984204D0002B38BF00231846704700205A
:10423C00704738B550F8103C0446A0F11801C3B1D2
:10424C004FF02003EFF3118583F31188BFF36F8FC9
:10425C0050F8100CFEF716FA14F80B3C23F002037E
:10426C0004F80B3C85F31188BFF36F8F002344F8DF
:10427C00103C14F80B3C084623F0140304F80B3CD8
:10428C00FFF7A3FF20B1BDE838400846FEF74ABA55
:10429C0038BD38B54FF02003EFF3118283F311884A
:1042AC00BFF36F8FFFF7BBFF044682F31188BFF398
:1042BC006F8FC8B14FF02003EFF3118583F3118892
:1042CC00BFF36F8F01468068FEF7DCF9637B23F048
:1042DC000203637385F31188BFF36F8F002304F11E
:1042EC001800A36000F011F8204638BD10B5029CF0
:1042FC008373047300230424C0E90633C0E9133329
:10430C00C0E916124473C37310BD10B54FF02002F0
:10431C00EFF3118482F31188BFF36F8F03683BB105
:10432C00FEF76CFC002084F31188BFF36F8F10BD77
:10433C006FF01500F7E710B54FF02003EFF3118481
:10434C0083F31188BFF36F8FFEF76CFC84F3118835
:10435C00BFF36F8F10BD37B5044601914FF02003AA
:10436C00EFF3118583F31188BFF36F8FFEF75AFCBF
:10437C00012805DDA042019902DD2046FCF7C6FCB0
:0E438C0085F31188BFF36F8F03B030BD70470B
:02439A00FFFF23
:08439C00D0C0FF7F010000000A
:1043A40000000000053F010000000000053F01007F
:1043B40000000000053F010000000000053F01006F
:1043C40000000000053F010000000000190C01007E
:1043D40000000000053F010000000000053F01004F
:1043E40000000000053F010000000000053F01003F
:1043F40000000000053F010000000000053F01002F
:1044040000000000053F010000000000053F01001E
:1044140000000000053F010000000000053F01000E
:1044240000000000053F010000000000053F0100FE
:1044340000000000053F010000000000053F0100EE
:1044440000000000053F0100000000006D0C0100A9
:1044540000000000053F010000000000053F0100CE
:1044640000000000053F010000000000053F0100BE
:1044740000000000053F010000000000053F0100AE
:1044840000000000053F010000000000053F01009E
:1044940000000000053F010000000000053F01008E
:1044A40000000000053F010000000000053F01007E
:1044B40000000000053F010000000000053F01006E
:1044C40000000000053F010000000000053F01005E
:1044D40000000000053F010000000000053F01004E
:1044E40000000000053F010000000000053F01003E
:1044F40000000000053F010000000000053F01002E
:1045040000000000053F010000000000053F01001D
:1045140000000000053F010000000000053F01000D
:1045240000000000053F010000000000053F0100FD
:1045340000000000053F010000000000053F0100ED
:1045440000000000053F010000000000053F0100DD
:1045540000000000053F010000000000053F0100CD
:1045640000000000053F010000000000053F0100BD
:1045740000000000053F010000000000053F0100AD
:1045840000000000053F010000000000053F01009D
:1045940000000000053F010000000000053F01008D
:0845A40000000000053F0100CA
:1045AC00E6480100950B010000000000E648010000
:1045BC00FD0B010000000000944A0100353E010093
:1045CC005C460100D4480100AD0C01000000000065
:1045DC00E6480100C11A010000000000CD480100AE
:1045EC00711E0100C0470100E6480100DD1E0100FC
:1045FC0000000000434C01005D4101000000000080
:10460C00E64801007123010000000000E6480100AB
:08461C00952D010000000000D3
:10462400DEE61E284CBBCE8F025B0000DEE61E28B1
:10463400EAAC45B8025B0000DEE61E284CBBCE8F18
:10464400025B00002F3E0100933C01004F3D01003E
:1046540000000000773C01000000000000000000A2
:104664000001000400000000000000000401080C28
:10467400894A010042010000904A0100050100003E
:104684009A4A010014010000A34A01001501000028
:10469400AC4A010039010000B54A010009010000DB
:1046A400C04A01000A000000CB4A01000A010000D0
:1046B400D54A01000B010000DF4A01000F01000090
:1046C400EA4A010010010000F54A0100110100004E
:1046D400004B01000E0100000A4B01002101000003
:1046E400134B0100220100001C4B010023010000B8
:1046F400254B0100240100002E4B0100180100008D
:10470400364B01002A0100003E4B01003A01000033
:10471400464B01002C0100004E4B01001C0100001F
:10472400574B01001D010000604B01001701000000
:104734006A4B010031010000764B010004010000C6
:104744000000000000020000000400000008000057
:104754000010000000000000033F010009130100E5
:10476400C91201006D130100A9120100EC1300200D
:10477400D4130020E413002000000000DC13002008
:10478400020000008C47010000000000D84B01002B
:1047940006000000E0FF0F0000000020E04B0100D5
:1047A40021000000E0FF002001410100254101003B
:1047B400F1400100051D0100E140010000800050AE
:1047C4000100000050140020A4140020B0140020A4
:1047D400C8140020C8140020F5FFFFFF436F756C58
:1047E40064206E6F74206C6F636B20706F776572DA
:1047F4002073617665206D7574657800FF8FFFFF07
:10480400FF8FFFFFFE8FFFFFFE8FFFFFFD8FFFFF78
:10481400FC8FFFFFFC8FFFFF43616E277420696EDE
:10482400697469616C697A65206D757465782C208A
:10483400776173204E554C4C0D0A000043616E277E
:104844007420756E6C6F636B206D757465782C20A5
:10485400776173204E554C4C0D0A00004661696C1B
:1048640020746F2061637175697265206D7574655C
:10487400780A00004661696C20746F2072656C656B
:10488400617365206D757465780A00004661696C12
:1048940020746F20696E63726561736520504D20CA
:1048A400636F756E7465720A000000004661696C7E
:1048B40020746F20646563726561736520504D20B8
:1048C400636F756E7465720A00554152545F30000F
:1048D4007379735F636C6F636B00536563757265A3
:1048E4000909004E6F6E2D536563757265090025C5
:1048F40030327520253032752030782530357820D7
:1049040030782530357820090025630053504D3A1E
:10491400204E5320696D61676520617420307825CD
:10492400780A0053504D3A204E53204D5350206185
:104934007420307825780A0053504D3A204E532085
:10494400726573657420766563746F722061742078
:10495400307825780A0053504D3A207072657061A2
:10496400726520746F206A756D7020746F204E6FAD
:104974006E2D53656375726520696D6167652E0AD6
:10498400004E6F6E2D53656375726500466C6173DE
:104994006820726567696F6E730909446F6D616998
:1049A4006E09095065726D697373696F6E730A00DD
:1049B4004E6F6E2D7365637572652063616C6C61F7
:1049C400626C6520726567696F6E203020706C615F
:1049D40063656420696E20666C6173682072656724
:1049E400696F6E20256420776974682073697A651D
:1049F4002025642E0A00436F756C64206E6F74204A
:104A0400696E697469616C697A652073656375722E
:104A140065207365727669636573202865727220F8
:104A24002564292E0A005352414D20726567696F2F
:104A34006E0909446F6D61696E09095065726D698B
:104A44007373696F6E730A0050657269706865727A
:104A5400616C0909446F6D61696E0909537461746D
:104A640075730A002530327520252D323173257374
:104A74000009534B49500A00094552524F520A004B
:104A8400094F4B0A004E52465F5030004E52465F6B
:104A9400434C4F434B004E52465F52544330004EFA
:104AA40052465F52544331004E52465F4E564D4378
:104AB400004E52465F554152544531004E52465FB6
:104AC400554152544532004E52465F5457494D3277
:104AD400004E52465F5350494D33004E52465F5488
:104AE400494D455230004E52465F54494D4552316E
:104AF400004E52465F54494D455232004E52465F75
:104B04005341414443004E52465F50574D30004E8E
:104B140052465F50574D31004E52465F50574D320A
:104B2400004E52465F50574D33004E52465F574435
:104B340054004E52465F495043004E52465F564D14
:104B440043004E52465F465055004E52465F45471D
:104B54005531004E52465F45475532004E52465F2E
:104B64004450504943004E52465F4750494F5445C4
:104B740031004E52465F524547554C41544F5253B3
:104B8400006D757465785F696E69742063616C6C1F
:104B940065642077697468204E554C4C20706172AE
:104BA400616D6574657200436F756C64206E6F741B
:104BB40020616C6C6F63617465206D757465782019
:104BC4006265666F726520696E697469616C697A81
:104BD400696E6700464C4153485F30005352414D63
:104BE4005F30004552524F523A2043616E6E6F74EB
:104BF4002066756C66696C6C204558545F41504959
:104C040020726571756573742E0D0A005741524EFA
:104C1400494E473A204F7074696F6E616C20455855
:104C2400545F4150492072657175657374206E6FCD
:104C3400742066756C66696C6C65642E0D0A004898
:104C4400575F43433331305F300076322E312E3993
:104C5400392D6E6373312D31352D6739653732390E
:104C640039613338653132002A2A2A20426F6F7441
:104C7400696E67205A6570687972204F5320627597
:104C8400696C64202573202573202A2A2A0A006D62
:104C940061696E0069646C65000000000000010039
:104CA400233C0100DC14002001000000F01400206B
:104CB4000100000004150020010000001815002068
:104CC40001000000DB40010000C2010000010300FC
:104CD400000000000090D0030814002008140020F5
:104CE400401400204C140020441400203C140020E4
:104CF400181400200000000095310100FD3101006E
:104D0400D531010019320100D93101008806002093
:104D14007C0600208406002000000000800600209D
:104D2400AC45010000000000000000000C4601003A
:104D34000000000000000000184601000000000010
:104D440000000000DC45010000000000000000003D
:104D5400C4450100484601000C000020E84501005C
:104D6400AC470100F8130020B84501000000000022
:104D740000000000D0450100000000000000000019
:104D8400004601000000000000000000F44501009E
:084D9400000000000000000017
:104D9C00C8140020C814002000000000000000000F
:104DAC000F000000DC140020DC14002000000000C8
:104DBC00000000000F000000F0140020F014002090
:104DCC0000000000000000000F000000041500208F
:104DDC000415002000000000000000000F0000007F
:104DEC00181500201815002000000000000000001D
:044DFC000F000000A4
:104E000000000000000000000000000000000000A2
:104E10000000000000000000000000000000000092
:104E20000000000000000000000000000000000082
:104E30000000000000000000000000000000000072
:107FE0007FE97FE9F9F792B87FE97FE9F9F7ECB823
:107FF0007FE97FE9FBF744BF0000000000000000BC
:0400000310001629AA
:00000001FF
