:020000021000EC
:10C20000C0720220A9070200473C03003106020069
:10C21000310602003106020031060200310602003A
:10C220003106020031060200310602005904020004
:10C230003106020031060200950302009DFF010055
:10C240006907020069070200690702006907020026
:10C250006907020069070200690702006907020016
:10C260006907020069070200690702006907020006
:10C2700069070200690702006907020069070200F6
:10C2800069070200690702006907020069070200E6
:10C2900069070200690702006907020069070200D6
:10C2A00069070200690702006907020069070200C6
:10C2B000852902000B4C0300690702006907020090
:10C2C00069070200690702006907020069070200A6
:10C2D0006907020069070200690702006907020096
:10C2E0006907020069070200294C03006907020080
:10C2F0006907020069070200690702006907020076
:10C300006907020069070200690702006907020065
:10C310006907020069070200690702006907020055
:10C320006907020069070200690702006907020045
:10C330006907020069070200690702006907020035
:10C34000690702000000000000000000000000007B
:10C3500000000000000000000000000000000000DD
:10C3600000000000000000000000000000000000CD
:10C3700000000000000000000000000000000000BD
:10C3800000000000000000000000000000000000AD
:10C39000000000000000000000000000000000009D
:10C3A000000000000000000000000000000000008D
:10C3B000000000000000000000000000000000007D
:10C3C000000000000000000000000000000000006D
:10C3D000000000000000000000000000000000005D
:10C3E000000000000000000000000000000000004D
:10C3F000000000000000000000000000000000003D
:10C40000DEE61E284CBBCE8F025B00003C00000025
:10C4100044F701000100000000C2010000C2010059
:10C42000FFFF02910000000000000000000000007B
:0CC4300000000000000000000000000000
:04C43C00FFFFFFFF00
:10C4400081F0004102E000BF83F0004330B54FEAC5
:10C4500041044FEA430594EA050F08BF90EA020F32
:10C460001FBF54EA000C55EA020C7FEA645C7FEAC5
:10C47000655C00F0E2804FEA5454D4EB5555B8BFE8
:10C480006D420CDD2C4480EA020281EA030382EA59
:10C49000000083EA010180EA020281EA0303362DEB
:10C4A00088BF30BD11F0004F4FEA01314FF4801CBE
:10C4B0004CEA113102D0404261EB410113F0004FD0
:10C4C0004FEA03334CEA133302D0524263EB430387
:10C4D00094EA050F00F0A780A4F10104D5F1200E25
:10C4E0000DDB02FA0EFC22FA05F2801841F1000180
:10C4F00003FA0EF2801843FA05F359410EE0A5F154
:10C5000020050EF1200E012A03FA0EFC28BF4CF084
:10C51000020C43FA05F3C01851EBE37101F000453A
:10C5200007D54FF0000EDCF1000C7EEB00006EEB47
:10C530000101B1F5801F1BD3B1F5001F0CD34908D1
:10C540005FEA30004FEA3C0C04F101044FEA445228
:10C5500012F5800F80F09A80BCF1004F08BF5FEAAF
:10C56000500C50F1000041EB045141EA050130BD8F
:10C570005FEA4C0C404141EB0101013C28BFB1F5A1
:10C58000801FE9D291F0000F04BF01460020B1FAEC
:10C5900081F308BF2033A3F10B03B3F120020CDABF
:10C5A0000C3208DD02F1140CC2F10C0201FA0CF09D
:10C5B00021FA02F10CE002F11402D8BFC2F1200C02
:10C5C00001FA02F120FA0CFCDCBF41EA0C019040B8
:10C5D000E41AA2BF01EB0451294330BD6FEA040401
:10C5E0001F3C1CDA0C340EDC04F11404C4F12002EC
:10C5F00020FA04F001FA02F340EA030021FA04F3FE
:10C6000045EA030130BDC4F10C04C4F1200220FA54
:10C6100002F001FA04F340EA0300294630BD21FA92
:10C6200004F0294630BD94F0000F83F4801306BF58
:10C6300081F480110134013D4EE77FEA645C18BF4C
:10C640007FEA655C29D094EA050F08BF90EA020FE3
:10C6500005D054EA000C04BF1946104630BD91EADB
:10C66000030F1EBF0021002030BD5FEA545C05D1DE
:10C670004000494128BF41F0004130BD14F580041D
:10C680003CBF01F5801130BD01F0004545F0FE4191
:10C6900041F470014FF0000030BD7FEA645C1ABFC6
:10C6A000194610467FEA655C1CBF0B46024650EAFD
:10C6B000013406BF52EA033591EA030F41F4002129
:10C6C00030BD00BF90F0000F04BF0021704730B5AF
:10C6D0004FF4806404F132044FF000054FF0000184
:10C6E00050E700BF90F0000F04BF0021704730B545
:10C6F0004FF4806404F1320410F0004548BF40421A
:10C700004FF000013EE700BF42004FEAE2014FEA6E
:10C7100031014FEA02701FBF12F07F4393F07F4F49
:10C7200081F06051704732F07F4208BF704793F04C
:10C730007F4F04BF41F40021704730B54FF460745F
:10C7400001F0004521F000411CE700BF50EA010262
:10C7500008BF704730B54FF000050AE050EA01020B
:10C7600008BF704730B511F0004502D5404261EB7B
:10C7700041014FF4806404F132045FEA915C3FF4BC
:10C78000D8AE4FF003025FEADC0C18BF03325FEA59
:10C79000DC0C18BF033202EBDC02C2F1200300FA0A
:10C7A00003FC20FA02F001FA03FE40EA0E0021FA2F
:10C7B00002F11444BDE600BF4FF0FF3C06E000BFAD
:10C7C0004FF0010C02E000BF4FF0010C4DF804CD1A
:10C7D0004FEA410C7FEA6C5C4FEA430C18BF7FEADA
:10C7E0006C5C1BD001B050EA410C0CBF52EA430C08
:10C7F00091EA030F02BF90EA020F0020704710F188
:10C80000000F91EA030F58BF994208BF90422CBF16
:10C81000D8176FEAE37040F0010070474FEA410C0F
:10C820007FEA6C5C02D150EA013C07D14FEA430C2D
:10C830007FEA6C5CD6D152EA033CD3D05DF8040B9E
:10C84000704700BF8446104662468C4619466346D0
:10C8500000E000BF01B5FFF7B7FF002848BF10F1A7
:10C86000000F01BD4DF808EDFFF7F4FF0CBF0120EC
:10C8700000205DF808FB00BF4DF808EDFFF7EAFF68
:10C8800034BF012000205DF808FB00BF4DF808ED23
:10C89000FFF7E0FF94BF012000205DF808FB00BF18
:10C8A0004DF808EDFFF7CEFF94BF012000205DF8A2
:10C8B00008FB00BF4DF808EDFFF7C4FF34BF0120AF
:10C8C00000205DF808FB00BF4FEA410212F500129C
:10C8D00015D211D56FF47873B3EB625212D94FEAC7
:10C8E000C12343F0004343EA505311F0004F23FAB1
:10C8F00002F018BF404270474FF00000704750EA06
:10C90000013005D111F0004008BF6FF000407047C2
:10C910004FF00000704700BF53B94AB9002908BF63
:10C9200000281CBF4FF0FF314FF0FF3000F06CB912
:10C93000ADF1080C6DE904CE00F006F8DDF804E076
:10C94000DDE9022304B070472DE9F047089D044655
:10C950008846002B7DD18A4217463FD9B2FA82F22F
:10C9600042B1C2F120009140974024FA00F0944077
:10C9700040EA01084FEA174C230C1FFA87FEB8FB68
:10C98000FCF60CFB168106FB0EF043EA01439842CD
:10C9900005D9FB1802D2984200F22481013E191AEF
:10C9A000A3B2B1FBFCF00CFB101100FB0EFE43EA3E
:10C9B0000144A64505D93C1902D2A64500F20F81D3
:10C9C000013840EA0640A4EB0E0400261DB1D44015
:10C9D0000023C5E900433146BDE8F08702B9FFDE18
:10C9E000B2FA82F2002A50D1CB1B4FEA174E1FFA3F
:10C9F00087F80126210CB3FBFEFC0EFB1C300B4616
:10CA000008FB0CF941EA004189450AD979182CBF85
:10CA100001230023894502D9002B00F0D9800CF1B5
:10CA2000FF3CA1EB0901A3B2B1FBFEF00EFB10111C
:10CA300008FB00F843EA0144A04505D93C1902D29D
:10CA4000A04500F2C9800138A4EB080440EA0C407C
:10CA5000BCE78B4209D9002D00F0B1800026C5E962
:10CA6000000130463146BDE8F087B3FA83F6002E68
:10CA700046D18B42C0F0A680824240F2A38030466D
:10CA8000002DA8D0C5E90048A5E79740C2F12003D2
:10CA900001FA02F04FEA174ED94024FA03F31FFAC5
:10CAA00087F894400343B1FBFEF01E0C0EFB1011FF
:10CAB00000FB08FC46EA01418C4509D979182CBFD6
:10CAC000012600268C4502D9002E00F09380013803
:10CAD000A1EB0C019BB2B1FBFEF60EFB161106FB9F
:10CAE00008FC43EA01418C4505D9791802D28C45EE
:10CAF00000F28780013EA1EB0C0346EA004679E78D
:10CB0000C6F1200703FA06F402FA06FC01FA06FE53
:10CB1000FA4020FA07F8F94000FA06F3224348EAFF
:10CB20000E044FEA12484FEA144E1FFA82F9B1FB85
:10CB3000F8FA08FB1A110AFB09F04EEA014E70459B
:10CB40000AD912EB0E0E2CBF01210021704501D92C
:10CB5000002952D00AF1FF3AAEEB000EA4B2BEFBA0
:10CB6000F8F008FB10EE00FB09F944EA0E4EF1451F
:10CB700005D912EB0E0E01D2F14538D8013840EA42
:10CB80000A40AEEB090EA0FB0C89CE4541464C464F
:10CB900002D306D1434504D20138B8EB0C0169EB4E
:10CBA000020415B35A1A6EEB040EF2400EFA07F7A0
:10CBB0002EFA06F300261743C5E900730BE72E464D
:10CBC000284608E7841A61EB03010120884657E7ED
:10CBD000ACF1020C394424E702383C4434E7023813
:10CBE0003C44EEE6023E3B44D9E62E46F3E60238EC
:10CBF0009644C4E7023839446AE7AAF1020A964427
:10CC0000AAE7023E394476E7704700BF70B54FF09F
:10CC1000FF0C4CF4E06C1CEA11541DBF1CEA1355C8
:10CC200094EA0C0F95EA0C0F00F0DEF82C4481EA30
:10CC3000030621EA4C5123EA4C5350EA013518BF50
:10CC400052EA033541F4801143F4801338D0A0FB3D
:10CC500002CE4FF00005E1FB02E506F00042E0FBEA
:10CC600003E54FF00006E1FB03569CF0000F18BFF0
:10CC70004EF0010EA4F1FF04B6F5007F64F5407498
:10CC800004D25FEA4E0E6D4146EB060642EAC6212B
:10CC900041EA55514FEAC52040EA5E504FEACE2E98
:10CCA000B4F1FD0C88BFBCF5E06F1ED8BEF1004F9B
:10CCB00008BF5FEA500E50F1000041EB045170BD17
:10CCC00006F0004646EA010140EA020081EA03015B
:10CCD000B4EB5C04C2BFD4EB0C0541EA045170BD57
:10CCE00041F480114FF0000E013C00F3AB8014F1D1
:10CCF000360FDEBF002001F0004170BDC4F100041A
:10CD0000203C35DA0C341BDC04F11404C4F120059A
:10CD100000FA05F320FA04F001FA05F240EA0200F5
:10CD200001F0004221F0004110EBD37021FA04F62B
:10CD300042EB06015EEA430E08BF20EAD37070BDE5
:10CD4000C4F10C04C4F1200500FA04F320FA05F044
:10CD500001FA04F240EA020001F0004110EBD37046
:10CD600041F100015EEA430E08BF20EAD37070BDB6
:10CD7000C4F1200500FA05F24EEA020E20FA04F38F
:10CD800001FA05F243EA020321FA04F001F000413E
:10CD900021FA04F220EA020000EBD3705EEA430EAF
:10CDA00008BF20EAD37070BD94F0000F0FD101F0DE
:10CDB0000046400041EB010111F4801F08BF013C17
:10CDC000F7D041EA060195F0000F18BF704703F055
:10CDD0000046520043EB030313F4801F08BF013DDC
:10CDE000F7D043EA0603704794EA0C0F0CEA135598
:10CDF00018BF95EA0C0F0CD050EA410618BF52EA52
:10CE00004306D1D181EA030101F000414FF0000057
:10CE100070BD50EA410606BF1046194652EA430665
:10CE200019D094EA0C0F02D150EA013613D195EAD9
:10CE30000C0F05D152EA03361CBF104619460AD121
:10CE400081EA030101F0004141F0FE4141F470012B
:10CE50004FF0000070BD41F0FE4141F4780170BD1B
:10CE600070B54FF0FF0C4CF4E06C1CEA11541DBF80
:10CE70001CEA135594EA0C0F95EA0C0F00F0A7F882
:10CE8000A4EB050481EA030E52EA03354FEA0131AF
:10CE900000F088804FEA03334FF0805545EA1313C2
:10CEA00043EA12634FEA022245EA111545EA10658A
:10CEB0004FEA00260EF000419D4208BF964244F121
:10CEC000FD0404F5407402D25B084FEA3202B61A40
:10CED00065EB03055B084FEA32024FF480104FF414
:10CEE000002CB6EB020E75EB030E22BFB61A754688
:10CEF00040EA0C005B084FEA3202B6EB020E75EB1B
:10CF0000030E22BFB61A754640EA5C005B084FEA82
:10CF10003202B6EB020E75EB030E22BFB61A75464F
:10CF200040EA9C005B084FEA3202B6EB020E75EB5A
:10CF3000030E22BFB61A754640EADC0055EA060E1B
:10CF400018D04FEA051545EA16754FEA06164FEA5E
:10CF5000C30343EA52734FEAC2025FEA1C1CC0D10A
:10CF600011F4801F0BD141EA00014FF000004FF097
:10CF7000004CB6E711F4801F04BF01430020B4F158
:10CF8000FD0C88BFBCF5E06F3FF6AFAEB5EB030C10
:10CF900004BFB6EB020C5FEA500C50F1000041EB0D
:10CFA000045170BD0EF0004E4EEA113114EB5C04DA
:10CFB000C2BFD4EB0C0541EA045170BD41F48011AD
:10CFC0004FF0000E013C90E645EA060E8DE60CEAB5
:10CFD000135594EA0C0F08BF95EA0C0F3FF43BAFD2
:10CFE00094EA0C0F0AD150EA01347FF434AF95EA89
:10CFF0000C0F7FF425AF104619462CE795EA0C0F6D
:10D0000006D152EA03353FF4FDAE1046194622E739
:10D0100050EA410618BF52EA43067FF4C5AE50EA13
:10D0200041047FF40DAF52EA43057FF4EBAE12E703
:10D030004A0011D212F5001211D20DD56FF4787397
:10D04000B3EB62520ED44FEAC12343F0004343EAEC
:10D05000505323FA02F070474FF00000704750EA37
:10D06000013002D14FF0FF3070474FF000007047A1
:10D0700038B50022002304460D46FFF7FDFB28B912
:10D0800020462946BDE8384000F00AB8204605F1A0
:10D09000004100F005F8404261EB410138BD00BF9E
:10D0A000D0B500220B4B06460F46FFF7AFFDFFF74A
:10D0B000BFFF0446FFF706FB0022074BFFF7A6FD64
:10D0C00002460B4630463946FFF7BEF9FFF7B0FF80
:10D0D0002146D0BD0000F03D0000F04110F8012BCA
:10D0E00011F8013B012A28BF9A42F7D0D01A7047A5
:10D0F000034613F8012B002AFBD1181A0138704798
:10D100002DE9F04305460C4693B009B9002025E00F
:10D1100008680028FAD08B686268191D91420CD803
:10D1200004229149184418F02BFE30B90423EB6017
:10D13000A36804330120A36010E0A3686268591D4E
:10D1400091420ED8206805228849184418F018FE2C
:10D1500038B90120A268E8600532A26013B0BDE8CA
:10D16000F083A3686268191D91420DD820680422DB
:10D170007F49184418F004FE30B902230120A26848
:10D18000EB6068610432E8E7D4E901038342BDD271
:10D190002168CA5CCE18222A04D12146284605F00F
:10D1A00005FADBE72D2A03D0A2F13007092F5ED85C
:10D1B000002201920029A9D02E27C31A0DF10808D8
:10D1C00016F8011B39290FD82A2918D9A1F12B00EB
:10D1D0000E2814D8DFE800F00C130C38130C0C0CDC
:10D1E0000C0C0C0C0C0C0C0001F0DF00452806D1D7
:10D1F00008F8021001323F2A01D09A42E0D112AB66
:10D200001A440023404601A902F8403C14F0DEFF16
:10D21000DDF8049057EC106BC1453FF477AF50A395
:10D22000D3E9002385ED060B10EE100A3946FFF70F
:10D2300037FB60B16FF000436B610823EB60A368BC
:10D24000A9EB0808434475E708F80270D2E700220A
:10D2500030463946474BFFF719FB10B14FF00043FA
:10D26000EAE730463946FFF72FFB6861E5E75B2ABE
:10D2700050D1E268B2F57A7FBFF448AF0132E26084
:10D28000CA5C5B2A7FF442AF0133A360204617F0EB
:10D2900078FCD4E9012393425DD22268D25C5D2AF6
:10D2A00009D10027E368013BE3602023C5E902734D
:10D2B000A36801333EE700263746013BA36020699F
:10D2C00017F074FCB0460646002800F09A80FFB1C3
:10D2D000C8F80000C0F80480A36820460133A360AA
:10D2E00017F04FFC21463046FFF70AFF002800F0F8
:10D2F0008B80204617F045FCD4E90123934280F04F
:10D3000083802268D35C2C2BD9D05D2B7CD1C9E7DC
:10D310000746E1E77B2A7FF4F9AEE268B2F57A7F4F
:10D32000BFF4F4AE0132E260CA5C7B2A7FF4EEAE59
:10D330000133A360204617F024FCD4E90123934273
:10D3400009D22268D25C7D2A16D10027E368013B0E
:10D35000E3604023AAE7013BA360D7E6AFF3008078
:10D360000000C0FFFFFFDF41FD90030014910300A8
:10D370001A9103000000E0C100263746B046013B89
:10D38000A360206917F012FCB1460646002838D089
:10D39000AFB3C9F80000C0F80490A3682046013379
:10D3A000A36017F0EEFB2146304605F0FFF858B3B6
:10D3B000204617F0E6FB3369C6F810803362D4E9E3
:10D3C0000123934220D22268D25C3A2A1CD1013335
:10D3D0002046A36017F0D5FB21463046FFF790FEAC
:10D3E00090B1204617F0CDFBD4E9012393420BD234
:10D3F0002268D35C2C2BC4D07D2B05D1A6E7074631
:10D40000CBE7002F3FF482AE384605F0F9F97DE610
:10D410002DE9F04F1F46A3B0002304468846199219
:10D420001E934FF0000AA34B4FF0000B1B681846E9
:10D430000793FFF75DFE0546CDF874801D9B1A78B3
:10D440002B2A4CD039D80D2A32D8082A32D8002AB3
:10D450003CD000230E931D9E3378302B40F0B580D6
:10D46000737803F0DF03582B6CD10E9B1DA9029734
:10D47000204601931EAB904A00931FAB15F06CFA47
:10D4800010F00707054605D0062F2AD101360023E4
:10D490001D960E93199B002B40F09A850E9BDBB1D5
:10D4A00052460BF1004343EC102B23B0BDE8F08F44
:10D4B000202ACED101331D93C0E72D2AC9D10122E4
:10D4C0000E925A1C1D925B78002BC4D1199BCDF88B
:10D4D0007480002B40F07A8552465B46E3E70022D9
:10D4E000EEE71E9A3AB1352120A819F0A8F91E9945
:10D4F000204618F0A1FE013F052F07D8DFE807F00E
:10D500000E0B181D0E034FF0000BDA462807C1D58D
:10D510004BF0004BBEE7DDE920ABF7E7DDE920A3E8
:10D520001F9A23F4801302F2334243EA025BEDE7D1
:10D53000DFF888B14FF0000AE8E76FF0004B4FF0DA
:10D54000FF3AE3E71D9B5A1C1D925B78302BF9D004
:10D55000002B9FD001234FF0000904930A221D9B4A
:10D560004F46CDF824900A931D980678A6F1300313
:10D57000D9B209292BD92A46079918F001FC0028AD
:10D5800034D0002033463D4602460790652B01D03B
:10D59000452B18D11DB9049B034397D00025DDF816
:10D5A000748008F101031D9398F801302B2B75D07E
:10D5B0002D2B7BD04FF0000CA3F13001092940F254
:10D5C0008380CDF8748000269EE00023C3E7082FF7
:10D5D00000F1010007F10107D4BF099902FB0939E5
:10D5E0001D90DCBF02FB01330993BDE71D9B5A1957
:10D5F0001D925B5D002F36D03D460790A3F13002AF
:10D60000092A12D90122C1E71D9B01305A1C1D9223
:10D610005B78302BF8D0A3F13102082A00F2DD84C8
:10D62000079000201D9A05460A92303B00F1010246
:10D6300013D0079900EB050E11442A4607910A21E1
:10D64000724512D12A180135082A05441CDC0999B3
:10D650000A2202FB0133099300221D9B1046591C2C
:10D660001D915B78CAE73846D3E7082A04DC099E97
:10D670004E4309960132E3E702F1010CBCF1100FB1
:10D68000D8BF01FB09F9F5E7102DDCBF0A2202FB28
:10D690000939E1E70023012207937CE74FF0000CF2
:10D6A00008F102031D9398F8023085E74FF0010C52
:10D6B000F6E700BF947503000C7503000000F07FCF
:10D6C0001D9B591C1D915B78302BF9D0A3F13101C2
:10D6D00008293FF678AFA3F1300E1D9B08931D9BE0
:10D6E000591C1D915B78A3F13006092E37D9089E8D
:10D6F000891B44F61F66082902DC7645A8BF7646DA
:10D70000BCF1000F00D07642002D4FD104990143A7
:10D710007FF4C0AE002A7FF4D9AE692B27D024DC79
:10D72000492B24D04E2B7FF4D1AE9F491DA818F071
:10D730004CFC00283FF4CAAE1D9B1B78282B2DD132
:10D7400020AA9A491DA818F054FC052826D1219B2F
:10D75000DDF880A043F0FF4B4BF4E00B9AE60A2182
:10D7600001FB0E3EAEF1300EB9E76E2BDBE79049C0
:10D770001DA818F02AFC00283FF4A8AE1D9B1DA888
:10D780008C49013B1D9318F020FC10B91D9B0133FF
:10D790001D93DFF830B24FF0000A7BE6864800F0B8
:10D7A00047FC8DED040BDDE904AB73E6079B002F0E
:10D7B00008BF2F46102D0998A6EB0303A846A8BF63
:10D7C0004FF010080893FEF77DFF092D82468B4627
:10D7D00013DD7A4B03EBC80353E91223FFF716FA64
:10D7E00082468B464846FEF76DFF02460B46504682
:10D7F0005946FEF72BFE82468B460F2D38DC089BE0
:10D80000002B3FF447AE24DD162B0BDC6B4D52464C
:10D8100005EBC3055B46D5E90001FFF7F7F9824642
:10D820008B4637E6C5F12503089A934220DBC5F104
:10D830000F05624C52465B4604EBC501D1E900017D
:10D84000FFF7E4F9089B5D1B04EBC504D4E9002352
:10D85000E3E7089B16330BDB079B5046574A5946B4
:10D860009E1B02EBC606D6E90023FFF7F9FAD6E7BE
:10D87000A5EB0808089B9844B8F1000F71DD18F07B
:10D880000F030AD04D49524601EBC3015B46D1E973
:10D890000001FFF7BBF982468B4638F00F084DD0E8
:10D8A000B8F59A7F22DD00252E460995079522239B
:10D8B000DFF810B14FF0000A2360099B002B3FF402
:10D8C000E9AD1E99204618F0B7FC0799204618F0DC
:10D8D000B3FC3146204618F0AFFC0999204618F0F9
:10D8E000ABFC2946204618F0A7FCD3E500234FEAFD
:10D8F0002818504659469946B8F1010F21DC0BB162
:10D9000082468B462E4BABF1547B524603EBC90942
:10D910005B46D9E90001FFF779F92A4B0A468246AE
:10D920000B4029498B42BED8A1F580118B4286BF9E
:10D93000DFF898B04FF0FF3A02F1547B00230493D4
:10D9400082E018F0010F07D01D4B03EBC903D3E9A8
:10D950000023FFF75BF9012309F101094FEA680889
:10D96000CAE7EBD0C8F1000818F00F020AD0134B39
:10D970005046594603EBC203D3E90023FFF770FA80
:10D9800082468B465FEA2818D8D0B8F11F0F1FDDFA
:10D9900000252E460995079522234FF0000A4FF0E7
:10D9A000000B236089E700BFE9B403002075030082
:10D9B000E0B40300E3B40300128D0300986E03008B
:10D9C000706E03000000F07F0000A07CFFFFEF7F7F
:10D9D00018F0100350465946DFF8B49318BF6A2375
:10D9E0000493002318F0010F04D0D9E90023FFF7B6
:10D9F0000DF901235FEA680809F10809F2D10BB1BA
:10DA000082468B46049BBBB1CBF30A535946C3F104
:10DA10006B03002B10DD1F2B40F32781342B4FF0BD
:10DA2000000ADBBF203B4FF0FF324FF05C7B02FA75
:10DA300003F3D8BF03EA010B0022002350465946E6
:10DA4000FEF710FF0028A3D1099B3A460A99204609
:10DA500000932B4618F046FC099000283FF423AFB2
:10DA6000079B00259E1B089B002BB4BF3346002359
:10DA70002E461093089B23EAE3731893099B2046D4
:10DA8000596818F0A5FB079000283FF410AF099BD8
:10DA90000C301A6903F10C010232920018F034F8CC
:10DAA00020AA1FA920464BEC10ABCDE90AAB18F019
:10DAB00043FE1E9000283FF4FAAE0121204618F0E4
:10DAC0009FFC064600283FF4F2AE1F9B0499002BF2
:10DAD000A3EB0108A9BF109A189A03EB0209189F3B
:10DAE000B8BFD71A209AA54B9044B8BFDDF8409034
:10DAF000C2F1360208F1FF38984580F2CA80A3EBE4
:10DB0000080301211F2BA2EB030200F3B58001FAE9
:10DB100003F3119300230C9309EB0208049B1744B1
:10DB2000C1451F444B46A8BF4346BB42A8BF3B4626
:10DB3000002BC2BFA8EB0308FF1AA9EB0309109B37
:10DB4000002B17DD31461A46204615F097F9064698
:10DB500000283FF4ACAE01461E9A204618F059FC4E
:10DB60000F9000283FF4A3AE1E99204618F064FBE6
:10DB70000F9B1E93B8F1000F00F39080089B002BC1
:10DB800008DD189A2046079915F078F907900028C3
:10DB90003FF48DAE002F08DD3A460799204618F075
:10DBA000D3FC079000283FF482AEB9F1000F08DDE6
:10DBB00031464A46204618F0C7FC064600283FF486
:10DBC00076AE079A20461E9918F039FD05460028C2
:10DBD0003FF46DAEC36831460F930023C36018F065
:10DBE00012FD002864DA0F9B53EA0A0340F0868096
:10DBF000CBF31303002B40F081802BF000431B0D6F
:10DC00001B05B3F1D66F79D96B6913B92B69012B59
:10DC100074DD29460122204618F096FC314605465F
:10DC200018F0F1FC002869DD04995B46544A00298C
:10DC300000F0848002EA0B01B1F1D66F7EDCB1F115
:10DC40005C7F7FF7A9AE00234E4A50465946CDE986
:10DC50001632DDE91623FEF7D9FF0B4682468B46C6
:10DC6000034304BF222323602BE64FF0FF3202FA66
:10DC700003F303EA0A0ADFE6C8F17F48119108F5C9
:10DC80007F0808F57B4808F1E20801FA08F30C93D5
:10DC900042E700230C93012311933DE742461E996E
:10DCA000204618F051FC1E9000287FF467AFFEE577
:10DCB0005F466FD10F9ACBF3130342B3324A9342BC
:10DCC00028D1049B5046EBB12D4A4FF0FF313A402A
:10DCD000B2F1D46F19D8120DC2F16B0301FA03F33C
:10DCE000984217D1294B9F4202D101303FF4DFAD5A
:10DCF000234B4FF0000A3B4003F5801B049B002B95
:10DD0000A1D1DEE54FF0FF33EAE70B46E8E753EA3F
:10DD10000A0389D00C9BDBB13B42EFD00F9B5046EE
:10DD2000049A5946C3B118F054F802460B46DDE98F
:10DD30000A01FEF78BFB82468B46DFE713404FF06C
:10DD4000FF3AA3F580136FEA135B6FEA0B5BD5E72D
:10DD5000119B13EA0A0FE0E718F03BF802460B4666
:10DD6000DDE90A01FEF770FB0022002382468B46A4
:10DD7000FEF778FD0028C1D00EE600BF02FCFFFFD1
:10DD80000000F07F00005039FFFF0F00FFFFEF7F22
:10DD9000486E03003146284618F01EFD00224FF061
:10DDA000804310EE100A59EC108B4946FEF76EFDC9
:10DDB00000287CD00F9B002B4CD00022944B4FF0BE
:10DDC0000008DFF84C92CDE90C23924B3B401193B5
:10DDD000119A914B9A4240F0B280A7F1547BDDE951
:10DDE0000A23DDE90C014BEC10ABCDE91623CDE99C
:10DDF0000C0115F091F8DDE90C0153EC102BFEF746
:10DE000005FF52465B46FEF721FB0B4681498246E1
:10DE1000824A194091425ED90B9B02F1547293429F
:10DE200003D10A9B01333FF442ADDFF8FCB14FF060
:10DE3000FF3A1E99204618F0FFF90799204618F07E
:10DE4000FBF93146204618F0F7F92946204618F02C
:10DE5000F3F913E6BAF1000F1BD1CBF31303F3B9B7
:10DE600000226B4B40464946FEF706FDD0B94046BE
:10DE7000494600226A4BFEF7C9FE8046894609F1F1
:10DE80000043CDF868801B93DDE91A23CDE90C230C
:10DE90009BE7BAF1010F02D1002F3FF47DAD0022C4
:10DEA000604B8CE74FF00008DFF87491E7E75C4BBC
:10DEB000404649460022FEF7A9FE0F9B8046894650
:10DEC00033B901F1004312901393DDE91223DDE72A
:10DED000CDE91289F9E703F1547B049B002BA8D10B
:10DEE0002BF00043119A1B0D1B059A42A1D140460D
:10DEF0004946FFF7BDF8FEF731FC02460B464046A7
:10DF00004946FEF7A1FACBF313030F9A804643EA82
:10DF10000A038946134353D035A3D3E90023FEF700
:10DF2000ABFC00287FF4CDAC4046494632A3D3E990
:10DF30000023FEF7BFFC00283FF47BAFC1E4049B45
:10DF400033B3119BB3F1D46F22D8404649462CA37A
:10DF5000D3E90023FEF79AFCA0B149464046FFF7FB
:10DF600067F8012838BF0120FEF7ACFB0F9B804605
:10DF7000894613BB01F1004314901593DDE9142386
:10DF8000CDE90C230D9B119A03F1D6639B1A0D93D7
:10DF9000DDE90C019DED0A0BCDE90C0114F0BCFF8D
:10DFA000DDE90C0153EC102BFEF730FEDDE90A230E
:10DFB000FEF74CFA82468B468FE7CDE91489DDE700
:10DFC00011A3D3E90023FEF757FCB4E700230E9317
:10DFD0001D9B199A1360FFF761BA652B3FF45AAB8A
:10DFE000452B3FF457AB0122FFF790BBAFF3008006
:10DFF0009535A094FFFFDF3F35E5AF350000E03FEA
:10E000000000C0FFFFFFDF419535A094FFFFCF3F29
:10E010000000F03F0000F07F0000E07FFFFF9F7CEA
:10E020000000E03F0000F0BFFFFFEF7F00000000B6
:10E030009FED010B704700BF000000000000F87F5B
:10E04000F0B5C7B0054600AF1E48FFF751F80446CB
:10E050001D48FFF74DF8231803F114061B3323F076
:10E060000703ADEB030D314668466B6C174A14F09D
:10E0700079F88642044622D900281BDB07F11806EE
:10E08000FF21134A134B304614F06CF801233B7206
:10E0900042237C603B61C7F800D0FE6003F01CFEA9
:10E0A000BB7DB88223F0030339462846BB7516F0C2
:10E0B000E9F90446204607F58E77BD46F0BD6FF0BE
:10E0C0000B04F7E7AC750300C7750300B9750300CF
:10E0D000E4750300D675030008B500B30378052B7B
:10E0E0001DD8DFE803F00316321D2913412118481B
:10E0F00007F018FA002803DC1649154817F038FE17
:10E1000013491548BDE8084015F005BA41681348A1
:10E11000F8E7134815F0FFF90122124B1A7008BDF9
:10E12000114815F0F8F905F0B1FF0028F7D00F48B5
:10E13000BDE8084015F0EFB90D4815F0ECF917F0FF
:10E140009FFA0028EBD00B48F2E70B48F0E700BF3E
:10E150002E4002201C760300207603004176030047
:10E160006C7603006F4002209A760300D976030094
:10E17000F97603002D7703004E7703002DE9F04177
:10E1800084B002AF0C46064607F00AF8011E5AD0CA
:10E1900002DA4B4815F0BFF92378072B00F28B8089
:10E1A000DFE803F004171E758989897FE16919B1D9
:10E1B000444815F0B0F946E04349DD22434815F0E4
:10E1C000AAF93046FFF73CFF014600283BD0404803
:10E1D000EFE7E822E3693C493E4815F09CF932E05C
:10E1E0006369EF220093E36937493B4815F093F9DF
:10E1F00063693A4D802B05EB030833D8A84526D830
:10E20000237B012B09D1238B3046391DBB8016F0AF
:10E2100067F910B1324815F07EF964696D4604F172
:10E22000080323F00703ADEB030D02AB22461846AB
:10E230002A4917F069FC00222A49025502462A4859
:10E2400015F069F9AD460837BD46BDE8F0812946AD
:10E250003046A8EB050216F054FA011E04DB13D079
:10E260000D44CBE76FF07901204815F054F92048B0
:10E2700015F051F9304616F05AF901460028BFD082
:10E280001C4815F048F9BBE76FF00401ECE7E169C1
:10E2900009B119488DE74FF48972A3880A491748D4
:10E2A0009BE7E16909B1164883E74FF48E72A388B2
:10E2B0000549144891E740F22112034912488CE7BE
:10E2C0006277030089770300047D0300A1770300D0
:10E2D000C1770300E97703000E7803007040022045
:10E2E00094780300A3780300A6B3030035780300F5
:10E2F0005C7803007A7803006DA40300AE78030015
:10E30000CC780300E278030000790300014601485D
:10E3100015F001B9157903002DE9F043A249B5B014
:10E32000A24815F0F8F8A24815F0F5F804F0FCFA48
:10E33000A04B984212DC023B984200F3C980411C7A
:10E3400000F0CB80A0F188600138012813D89A48EA
:10E3500015F0E1F8994815F0DEF80CE0984B98427A
:10E3600009D1984815F0D7F8974815F0D4F812F06D
:10E3700005FA12F063FC954815F0CDF805F0B6F8F3
:10E3800070B1934940F2EF13924A934815F0C3F8E5
:10E39000924815F0C0F840F2EF118E4815F001F9DF
:10E3A00005F02AF870B18A4940F2F113894A8A4887
:10E3B00015F0B1F88A4815F0AEF840F2F111854831
:10E3C00015F0EFF8874815F0A6F817F05BF970B173
:10E3D0007F4940F256237F4A7F4815F09CF88248D7
:10E3E00015F099F840F256217A4815F0DAF87F488E
:10E3F00015F091F815A815F0E8FF2022002101A8DA
:10E4000017F0A2FB01237A4CCDE9023323684BB904
:10E41000784971489323784A15F07DF8932176481E
:10E4200015F0BFF823685B6B4BB974496A489423B5
:10E43000714A15F070F894216F4815F0B2F823680E
:10E4400000215D6B6E486B4601AAA8470146002873
:10E450004CD06C4815F05FF86B4A6C4B154603F1D5
:10E46000140153F8040B8B4242F8040BF9D16649AE
:10E47000674815F050F8674B63482893664B26951C
:10E480002D93FEF735FE04228DF8CA20634A00233F
:10E490002E92802262490126CDE930122F9202226B
:10E4A000CDE92933CDE921335E4B5F492493544BA9
:10E4B000279015A88DF8786020922396259307F071
:10E4C00013F80146002867D0584815F024F80AE0F0
:10E4D000394815F020F856483DE7564815F01BF826
:10E4E000364815F018F835B0BDE8F083009BA3B1AD
:10E4F0001969082930D15B6946495B6801204B6086
:10E500004BF2223308804B802E23043109AA02F0FB
:10E510000FFF494809A914F0FEFF2368009D4BB97D
:10E5200034492D489B23344A14F0F5FF9B2132488F
:10E5300015F037F823689B6B4BB9404926489C235C
:10E540002D4A14F0E8FF9C212B4815F02AF8236887
:10E5500028469B6B98477FE7182917D15B69384994
:10E560001A1D143352F8040B9A4241F8040BF9D1E6
:10E5700002204BF22233274908804B802E2304319E
:10E5800009AA02F0D5FE2F4809A9C4E718230822DA
:10E590002D4814F0C0FFC0E715A815F02FFF014665
:10E5A000002855D0294890E7D67503003379030039
:10E5B0005B79030004004004707903008E79030046
:10E5C000010050059C790300BF7903003B7A0300EA
:10E5D0005D7A03004F7A0300667A0300837A0300B2
:10E5E000A97A0300CC7A0300E57A03000A7B0300D2
:10E5F000F82002204F7B03001F7B03005A7B03009F
:10E60000727B0300A07B03001A400220F07C030011
:10E61000247C0300F83F02207DE10100F04002204D
:10E620007041022040950220D9E00100337C0300B4
:10E63000ED7903001D7A0300BE7B03000B7C030011
:10E64000FC3F0220CF7B0300E07B03004C7C0300F7
:10E65000344D1F9BAE802B6015F0E3F8324FDFF88E
:10E66000F090DFF8F08023684BB9494640464D23CF
:10E670003A4614F050FF4D21384614F092FF2368BB
:10E680009B694BB9404629494E233A4614F043FF53
:10E690004E21384614F085FF23684EF66022012192
:10E6A0009B6920489847002811DA15F002FB0168A1
:10E6B0001F4814F030FF1F4814F02DFF15A815F067
:10E6C00036FF014600283FF40EAF1B48FDE615A8B3
:10E6D00015F0CFFF014620B110F10B0F01D0174804
:10E6E000E7E7EB88DA0706D515A815F0E9FF01463C
:10E6F00008B11348DDE7E888030703D5114814F093
:10E700000AFFD8E710F0200601D00F48F7E70F4BBB
:10E710001B78002BA7D015A815F009FF304601F093
:10E7200091FAA0E7F02002201F7B0300647C030025
:10E73000757C03005C780300C37C0300857C0300C8
:10E740009A7C0300B07C0300B97C03006F40022078
:10E750004F7B0300667A030030B50A4C0A449142AD
:10E7600000D130BD11F8013B58400309E35C83EA56
:10E770000013DDB2C3F30313E05C80EA0510C0B2FE
:10E78000EDE700BF157D03002DE9F04F85B0837ADA
:10E7900000AF9B00073303F4FF63ADEB030DE946C5
:10E7A000436806464C460120C9F80030814222D217
:10E7B000347C884614F00104154624D014F08BFDF7
:10E7C0000446B8F1000F20DABC23524A524953489C
:10E7D00014F0A1FE524814F09EFEBC214D4814F0E6
:10E7E000E0FE4FF0FF342146307C14F07DFD1437FD
:10E7F000BD46BDE8F08F236801309B0823F003037A
:10E8000044F8043FD2E72046DAE759F828302A4690
:10E8100003FB05FB7B60336841463B60304603EBFE
:10E820000B0A07F10C0314F03FFDFB681B6823FA89
:10E8300000F0C3070DD4A223364A3A49374814F0F2
:10E840006AFE5146384814F066FEA221314814F0A1
:10E85000A8FE2A46414607F10C03304614F024FD79
:10E860000122F96802FA00F00B68F26823EA00035B
:10E870000B600C2303FB082339681A1D41F80B2099
:10E880009A682146CAF804209A68C2F800A0C3F822
:10E8900008A0307C14F028FD347C14F0010437D03B
:10E8A00014F019FD0446B8F1000F9CD007F10C03D9
:10E8B0002A464146304614F0F7FCFB6800281B68E6
:10E8C000B8BF033020F0030023FA00F010F00F036C
:10E8D00089D19C4625F0030B79680BEB03024A4370
:10E8E000316801338818D0F804A051F802E0042BF5
:10E8F000CAF800E0CEF804A041F802C0C0F804C095
:10E90000EAD1002DB8BF033508F1FF38AD1058E744
:10E910002046C7E7257D0300D7AF0300667A0300D2
:10E920008D7D0300497D0300687D03000B68013382
:10E930000B60014B1B681847449502202DE9F04FEE
:10E940002DED028B83B00E9C9A46012CB8BF01249A
:10E95000012B0CBF302320231546064608EE103A43
:10E9600001274FF00A080022DFF874B0B5FBFBF96D
:10E970000AB9AB4520D809F130000091B047012217
:10E98000013700990A2308F1FF38B8F1010F0BFB9A
:10E990001955BBFBF3FBE9D105F130000091B047FD
:10E9A000BAF1030F009902D1E41B002C11DC03B073
:10E9B000BDEC028BBDE8F08F4445E3DBBAF1020FFA
:10E9C000E0D818EE100ACDE900120137B047019ADD
:10E9D000D7E720200091013CB0470099E5E700BF50
:10E9E00000CA9A3B014B1860704700BF4495022053
:10E9F0002DE9F04F002705468B464FF0FF39B8460A
:10EA00001C468DB0531E0393002605E06EB92528E1
:10EA100000F071815946A847039B13F8010F039337
:10EA20000028F3D10DB0BDE8F08F7A280AD862280B
:10EA300010D8302854D045D8252800F05A812D28E8
:10EA400000F05F8159462520A8475946039B187856
:10EA5000A847D9E7A0F16303172BF3D801A252F816
:10EA600023F000BFEBEC01002FEB010045EA0100B1
:10EA700045EA010045EA010011EB01002FEB01001E
:10EA800045EA010045EA010011EB010045EA0100F9
:10EA900045EA010045EA0100D1EB010045EA010029
:10EAA00045EA0100BBEC010045EA01009FEB0100D3
:10EAB00045EA010045EA0100CDEA010045EA01000E
:10EAC00011EB010039281AD95828BBD1039B1B78B8
:10EAD000702B40F0888054F8043B0022069390E0AD
:10EAE000B9F1000F0EDAB8F1000F00F00D81A0F1BE
:10EAF0003009B8F1000F08BF4FF002088CE7B9F1F8
:10EB0000000FF4DB0A2303FB0909A9F13009F0E740
:10EB1000682803D1682F06D148277DE76C2802D1E9
:10EB20006C2F00F0F480002F8CD1074674E77A2F09
:10EB300002D154F8046B21E06C2FFAD04C2FF8D19D
:10EB4000073424F00704F4E80223CDE90423049BEE
:10EB50004FF0FF3013F10041059B089143F1000194
:10EB600009910021DDE90823994208BF904204D2AF
:10EB70005946284614F0C1FC46E7049E002E05DAEB
:10EB800059462D20A847764209F1FF3943463246BF
:10EB9000CDF8009059462846FFF7D0FE34E77A2F8B
:10EBA00002D154F8042B0FE06C2FFAD04C2FF8D17F
:10EBB00000214FF0FF30073424F00704F4E802236B
:10EBC000994208BF9042D3D34346CDF80090E1E785
:10EBD00059463020A84759467820A8474FF00809E1
:10EBE0004FF0010872E76C2F3FF475AF4C2F7FF4A4
:10EBF00072AFE31D23F007031C4654F8082B06925E
:10EC00005A68002110234FF0400A04910791AAF19D
:10EC1000040A0699CAF1200EAAF1200C21FA0AF082
:10EC200002FA0EFE40EA0E0022FA0CFC40EA0C004A
:10EC300010F00F0007D1079911B9BAF1000F25D1D3
:10EC40004FF0300C05E009288CBF4FF0570C4FF007
:10EC5000300C6044594640B20A920793A847049B7F
:10EC60000A9A01330493079BBAF1000F23D1B8F13C
:10EC7000030F7FF4C9AE049BC3EB4906002E7FF758
:10EC8000C3AE59462020A847013EF7E7591E9945D3
:10EC90000A9107DBB8F1010F06D1594630200B92DB
:10ECA000A8470B9A0A9BB2E7B8F1020FFAD159466E
:10ECB00020200B92F4E70796A9E754F8046BB246BC
:10ECC00053461AF8010B68B9B8F1030F21D19E1B06
:10ECD000A9EB0606002E7FF797AE59462020A847DD
:10ECE000013EF7E75946A847EAE7594654F8040BAE
:10ECF000AEE65946ACE63746B0464FF0FF3901263E
:10ED00008AE64FF0030887E64FF0010884E64C27B7
:10ED100082E6064680E600BF07B50B4600210246A4
:10ED20000191034801A9FFF763FE03B05DF804FBFE
:10ED30002DE901004FF02002EFF3118382F31188D7
:10ED4000BFF36F8F0121044AC2F8401583F3118885
:10ED5000BFF36F8F00207047009003402DE9F04310
:10ED600008230D4685B009680746047C14F026FC8C
:10ED700068B90821204614F06DFC2968BB8901445C
:10ED80008AB21B1A9A420646296003D0002005B0B9
:10ED9000BDE8F0830B0C09BFFB89A1F5803103F1BD
:10EDA000FF3301EB03416A4608233846296014F01B
:10EDB00005FC0028EBD16A46034612F8011BFF2927
:10EDC00015D10133082BF8D17B682B60DFE7BB89B5
:10EDD000BDF802109B1B99420FD2B1FBF6F306FB64
:10EDE000131353B9240C24040C442C60CFE7684659
:10EDF00014F01BFC2C680028E9D0104BA41B99468A
:10EE00002C6004EA0308A045C0D2082321463846F6
:10EE10000DEB030214F0D2FB0028B8D102A814F0C5
:10EE200004FC40B9BDF80A30BDF80C2008EA090816
:10EE3000134498442C60A41BE5E700BF0000FFFFCB
:10EE40002DE9F04F082195B00546007C14F002FC36
:10EE500006466B68E8891B0C1B0403A9039314F096
:10EE600002FC039BA98906AF1944891B08233A4673
:10EE70002846049114F0A2FB041E71DB0023FA5C07
:10EE8000FF2A71D10133082BF9D12846039914F0D8
:10EE90001AFC044664E057453E4628BF56464146A4
:10EEA000334628460CAA14F089FB0446002857D1A3
:10EEB00036B133462846A9680CAA14F02AFC044649
:10EEC0003146287C14F0C6FBAA681044A860002CC8
:10EED00046D1AAEB060AB04438E0019B5B45D4D08A
:10EEE000284608AA04A9DDF810B0FFF737FF04464A
:10EEF000002835D16B68059328460AAA05A9059F05
:10EF0000FFF72CFF044658BBBDF82820BDF8203081
:10EF10009A42F1D10AA814F088FB0028ECD15F4591
:10EF2000DBD1BDF82430002BD7D0BDF822300BEA5E
:10EF300009089844AB6808A8ADF8223014F081FBAA
:10EF40002F7CBDF824A07F4207F02007BAF1000F04
:10EF5000A1D1284608A914F021FC04460028BCD001
:10EF6000204615B0BDE8F08F049BBDF81A109A1B1F
:10EF70000192034A13400B4491460493B0E700BF4B
:10EF80000000FFFF2DE9F04304460D4687B000F175
:10EF90001406304616F02AFC28460FF0FDFAA0624F
:10EFA00048B945217E4814F0B6FA6FF005052846A9
:10EFB00007B0BDE8F08343681B7D202B237406D97E
:10EFC0004521784814F0A7FA6FF01505EFE7A06A1D
:10EFD000216803AA15F08FFC10B145217248F1E7B2
:10EFE000A3892BB1049AB3FBF2F502FB153515B1D9
:10EFF00045216E48E6E7E389012B02D845216C489C
:10F00000E0E700954FF0FF3130460FF095FF082103
:10F01000207C14F01FFBA9460746E3891FFA85F8F8
:10F02000434505D8E3894B451ED16FF02C05BEE75B
:10F03000A1892B04C91B13FA81F1082220460091F3
:10F0400014F01CFB70B16946E08914F00CFB09F167
:10F0500001090822204600991FFA89F914F00EFBD5
:10F060000028DFD00135D8E743450AD100990822AE
:10F070002046C91B14F002FB18B96946E08914F058
:10F08000F2FA009BDA1B62604A4A90461340A36082
:10F09000D4E9011399420ED30823204601AA14F0A3
:10F0A0008DFA054618BB01AB13F8012BFF2A5ED180
:10F0B0000135082DF8D1D4E901218A4206D920462C
:10F0C000521A14F0DBFA051E11DB33D16368DFF846
:10F0D000E480694603EA0803E089009314F0C3FA68
:10F0E0002046A289009914F0C9FA051E27DA304695
:10F0F00010F000F8002D7FF45AAF0123E289637409
:10F100004921A3892C4814F006FA6268492193B278
:10F110002A48120C14F0FFF9A268492193B228483A
:10F12000120C14F0F8F942E7B9F1000F34D06FF087
:10F130001C053CE7A368227C1344A360BBE7D6D040
:10F140002046616814F0BFFA05460028CFD16368F5
:10F15000A08903EA08030344A3EB4700606000EAC8
:10F160000800A0602046FFF76BFE0546BFE701A838
:10F1700014F05BFA656878B90098BDF80620BDF810
:10F18000089000EA080002444946207C14F062FA24
:10F190001044A842A060C7D0ED1B656078E700BFAF
:10F1A000BA7D0300DB7D0300FD7D03001A7E0300B2
:10F1B000337E03000000FFFF5B7E0300777E0300C9
:10F1C0008E7E03002DE9F04F1E46437C044689469F
:10F1D000904689B04BB94521634814F09CF96FF013
:10F1E0000C05284609B0BDE8F08F90F810B0082152
:10F1F000584614F02FFAA38900EB40029B1AB34241
:10F200008246C0F0AC801EB1B8F1000F00F0A780BC
:10F2100063680393204604AA03A9039FFFF79EFD9A
:10F2200005460028DDD1BDF810304B4505D0626899
:10F23000039B9A42EED1D6B9D3E704A814F0F5F9AE
:10F240000028F4D1BDF814307EB1B3420FD1BDF81F
:10F250001200390C0904014433464246204614F09A
:10F26000BBF9002803DC0546BBE7002BB9D03146CB
:10F27000584614F0EFF9074600283DD104F1140A6E
:10F280004FF0FF3150460FF057FE0023DFF8DCB09F
:10F29000E289934260D0D4E90121781882422ED3CA
:10F2A000FF2306A8ADF81890ADF81A10ADF81C6051
:10F2B0008DF81E3014F0C5F936B13346424620466B
:10F2C000A16814F026FA05463146207C14F0C2F9F4
:10F2D000A3681844A060002D44D1204606A914F06C
:10F2E0005DFA054600283DD13246019250460FF0A6
:10F2F00001FF019A154674E75744BFB2BEE70821E3
:10F30000207C019314F0A6F94FF6FF71ADF81810A8
:10F310000021ADF81C101118ADF81A10A18902EAED
:10F320000B020A44101A606006A814F08AF906A9B4
:10F33000204614F033FAE089211D14F094F9626834
:10F34000204602EA0B02A260FFF77AFD024600287F
:10F35000CBD1019B01339BE76FF01B02C5E76FF038
:10F3600015053EE72A46C0E7A17D03000000FFFF28
:10F370002DE9FF471E46437C04460F469046BDF8E4
:10F38000309043B92848452114F0C5F86FF00C00BF
:10F3900004B0BDE8F0870821007C14F05BF9A38974
:10F3A000A3EB4000B0423BD34FF0000A63680193E7
:10F3B000204602AA01A9019DFFF7D0FC0028E7D151
:10F3C000BDF80830BB4207D102A814F02EF918B9D5
:10F3D0000AF1010A1FFA8AFA6268019B9A4218D060
:10F3E000CA45E5D9BDF80C30BBB1CA4515D3BDF847
:10F3F0000A102D0CB3424FEA054528BF334642465A
:10F400002046294414F0DAF80028C1D1BDF80C00D8
:10F41000BEE7BDF80830BB42E4D06FF00100B7E7AB
:10F420006FF01500B4E700BFA17D030030B585B0D3
:10F4300001910446154614F0F6FA0828034601998E
:10F4400006D94FF49D710A4B0A4A0B4812F032FB61
:10F450004FF0FF322046CDE9022202AA8DF8085073
:10F4600014F092FA002818BF6FF0040005B030BD08
:10F47000AB7E0300F07E0300C37E030037B5054674
:10F4800001A9062000F01AF9044610BB01981023C8
:10F490008168124A103914F077FA0446019814F082
:10F4A00055FAB4B9C5B1062014F0A8F9044680B9DC
:10F4B0000325062001A900F001F9044648B9019886
:10F4C0002A4681682839FFF7B1FF0446019814F0F5
:10F4D0003DFA204603B030BD0225EAE7606F030025
:10F4E000F0B5D0F80062054685B030460C4614F001
:10F4F000A1FA7168214440B96FF012044521144803
:10F5000014F009F8204605B0F0BD01AA15F0F3F992
:10F5100004460028F2D1DDE90167D5F80C32B34288
:10F52000F0D0324649210B48C5F80C6213F0F3FFC6
:10F53000D5F800023A464168711A14F04EFA0446B2
:10F540000028DFD002464521034813F0E4FFD9E745
:10F55000087F0300337F0300597F03002DE9FF4735
:10F560000446B0F80802B0F5007F05D2C0F500727D
:10F57000FF21204416F0E8FAD4F80412204601F5E1
:10F580000071FFF7ADFF054650B145210246D4F8A2
:10F590000432274813F0BFFF284604B0BDE8F087C7
:10F5A0004FF40073D4E98001224614F0EDF9A1462E
:10F5B000054628B102464521D4F804321D48E9E742
:10F5C0004FF40077D4E980A8042F3E4628BF0426D4
:10F5D00003AA33464146504614F0B9F9024640B1F9
:10F5E00043464521144813F096FFB7B16FF0040568
:10F5F000D2E73246484603A916F078FA48B199F89E
:10F600000030424600934521039B0C4813F083FFD2
:10F61000EBE7BF1BB044B144D6D1B4F80822D4F80C
:10F6200004321344C4F804320023A4F80832B3E7C8
:10F630007C7F0300B17F0300DA7F030002800300B8
:10F6400038B5054648B90C490C4811230C4A13F04B
:10F6500062FF11210A4813F0A4FF0A4C22684AB144
:10F66000094906481223064A13F055FF122104489F
:10F6700013F097FF256038BD567B0300667A0300C0
:10F6800055800300F820022090800300094B30B51C
:10F690001D68094B1C6800239D4202DC00210846BE
:10F6A00030BD1A01A25C04EB03118242F7D0013392
:10F6B000F2E700BFF06F030048950220084B10B539
:10F6C0001B680C462BB1FFF7E1FF28B1206000203A
:10F6D00010BD6FF00C00FBE76FF00100F8E700BF12
:10F6E0004895022030B589B00C4615460190FFF7C9
:10F6F000CDFFB8B14368226802938368C068CDE942
:10F7000003350023CDE9062305930EF045FF60B1D4
:10F71000074901AA15F0F3F8079808B9059B23607B
:10F7200009B030BD6FF01500FAE76FF01200F7E78F
:10F7300011390300F7B501920D4A054614680E46CB
:10F7400094B14FF0FF310B480FF0F6FB6268294689
:10F75000976820463246019BB847044605480FF09B
:10F76000C9FC204603B0F0BD6FF00104F9E700BF0B
:10F7700004210220CC9802200E4B10B51C680021F9
:10F78000224632B941B904605A6818605AB95860C3
:10F7900009E011461268F4E70C683CB902605A6847
:10F7A00012B9C3E9000010BD1060F0E70460086002
:10F7B000F9E700BFFC200220014B1860704700BF32
:10F7C00004210220002330B585B00546CDE902337F
:10F7D00001904FF0FF310D480FF0AEFB0C4B1C6851
:10F7E000002C38BF00243CB1636820461B6801A987
:10F7F00098472468002CF6D1284600F013F90446F7
:10F8000002480FF077FC204605B030BDCC980220AE
:10F81000FC2002200022024BC3E90022704700BFF7
:10F82000FC2002200022024BC3E90022FFF7F2BFB6
:10F83000082102202DE9F0410646234D4FF0FF310B
:10F8400022480FF079FBA846214C224FAC420CD93C
:10F8500021492D233A46214813F05DFE204813F03C
:10F860005AFE2D21384613F09CFE44450CD31D4D05
:10F870002C68C4B900246A6806F11403746102BBE1
:10F880001446C5E9003306E021683068FDF726FC20
:10F8900038B96FF010040D480FF02CFC2046BDE87D
:10F8A000F0811434D2E7143C002CE3D02168306896
:10F8B000FDF714FC0028ECD014F1140FDAD06469C1
:10F8C000D7E713606B60E6E7346D0300CC98022045
:10F8D000346D0300BD800300EF800300667A0300EF
:10F8E00017810300082102202DE9F34707460E4641
:10F8F00009B100230B60DFF8B0800025C246254C1B
:10F90000DFF8A89044450CD9234995234A4623485B
:10F9100013F001FE224813F0FEFD9521484613F036
:10F9200040FE544508D31F4B1C680CB1143CC4B9AD
:10F93000284602B0BDE8F0873846216801AA14F0D5
:10F940007FF860B125B90EB1019B3360254606E012
:10F9500000222968206814F073F80028F3D11434C9
:10F96000D0E73846216801AA14F06AF860B125B9D9
:10F970000EB1019B3360254606E00022296820680D
:10F9800014F05EF80028F3D114F1140FD0D064699C
:10F99000CBE700BF346D0300EF800300667A0300FD
:10F9A0001781030008210220346D0300BD8003008D
:10F9B0002DE9F04186B00C9F04460D461646059091
:10F9C000BFB1396881B105AA039314F039F8039BDC
:10F9D00050B9002005E0BA682946009205983246E1
:10F9E000C04706B0BDE8F081D7F80480B8F1000F39
:10F9F000F1D1204605A90393FFF776FF0028E8D050
:10FA00008768039B324629460598B8470346002875
:10FA1000DFD022464521024813F07DFDD9E700BF23
:10FA2000368103002DE9F843234F06460025B946E9
:10FA3000224CDFF89C80BC420CD92149F523424678
:10FA4000204813F068FD204813F065FDF52140467D
:10FA500013F0A7FD4C4507D31C4B1C680CB1143C9C
:10FA6000A4B92846BDE8F8831EB9E3684BB914343D
:10FA7000E1E700223146206813F0E2FF0028F4D1CC
:10FA8000F5E79847002D08BF0546F0E736B9E3686B
:10FA900063B914F1140FE4D06469DFE70022314642
:10FAA000206813F0CDFF0028F1D1F2E79847002D30
:10FAB00008BF0546EDE700BF346D0300346D030059
:10FAC000EF800300667A03001781030008210220FB
:10FAD000BD80030010B5064C23783BB9FFF7A2FEAA
:10FAE00000F064F808B90123237010BD0020FCE782
:10FAF000F04102202DE9F04780468946848EDFF8E8
:10FB0000A8A0013498B0A4B200F10806651EADB2F9
:10FB1000B5F5004F45D04A23294605AA304613F0D3
:10FB200052FE04F57F543F34A4B207462146012318
:10FB300030460DF10B0213F046FE002F014603DCA8
:10FB4000002803DC2C46E1E7002816DCB8F8343046
:10FB5000AB4209D142466B1E22F8343F4FF40041BC
:10FB600002233046FFF72EFB2946304613F027FECE
:10FB70002146304613F023FEE4E718AB1F44002370
:10FB8000524607F84C3C05A8CDF8009003AB03960D
:10FB9000ADF81040FFF70CFF0028D3D018B0BDE837
:10FBA000F0870020FAE700BF813A03007FB5012308
:10FBB000694607200193FFF781FD0446002836D1EE
:10FBC000072002AA01A9FFF78DFD10F1130F0446CB
:10FBD0002DD038B10C3405D0404080F311884FF05F
:10FBE000040002DF0399B1F5803F23D200231846B9
:10FBF000009A9568084485429CB203D30133082BD0
:10FC0000F8D11C460D4D53682846AB60D368EC8292
:10FC1000A982AB6313F0C9FF044640B9084E2846D9
:10FC20006E60FFF7A9FD28466E60FFF7C5FD204610
:10FC300004B070BD6FF02004F9E700BF102102206E
:10FC40004C95022007B501904FF02002EFF311838D
:10FC500082F31188BFF36F8F13F0EAFF019800F071
:10FC6000B5FF034813F057FC00F0DCFCFCE700BFD5
:10FC70006F8103000A2838B50446074D04D128686F
:10FC800043680D215B68984728684368E1B25B6868
:10FC90009847204638BD00BF4C21022008B50448D3
:10FCA00001F03EFABDE808400148FEF79BBE00BFE8
:10FCB00075FC010008B504480EF06EFC034B18609B
:10FCC000FFF7ECFF002008BD988103004C210220C3
:10FCD00010B5002204460121052000F0DDFB0520BF
:10FCE00000F0CAFB0222074B0020C3F818250322AC
:10FCF000C3F80423A368C3E90000A368C3E90300B1
:10FD000010BD00BF0050004038B5CCB2012C0546F4
:10FD100009D90B490B4884230B4A13F0FCFB8421BF
:10FD2000094813F03EFC0C21AB6804FB01314B7A0F
:10FD300023B9087AB0FA80F0400938BD0220FCE708
:10FD4000DA810300667A03009F8103002DE9F04702
:10FD5000CDB2012D0646144609D949494948FD232B
:10FD6000494A13F0D8FBFD21474813F01AFC3368C9
:10FD7000D6F80890D3F80880002C57D14FF0200314
:10FD8000EFF3118A83F31188BFF36F8F0C2303FB0A
:10FD900005931F7A0137FFB21F725FB93B4939489B
:10FDA0004FF48773384A13F0B6FB4FF48771364827
:10FDB00013F0F7FB8AF31188BFF36F8F2CB3032284
:10FDC000334BC3F808230C226A4309EB0203597A28
:10FDD00091B94FF02000EFF3118C80F31188BFF33D
:10FDE0006F8F2160586800283AD15C6049F8024062
:10FDF0008CF31188BFF36F8F0322254BC3F80423C4
:10FE000019B1D4E9013130469847012F0CD12F01A7
:10FE100058F807303BBB0122B84498F80A3003F188
:10FE2000804303F5A0431A60002027E063685BB9B4
:10FE30001849144840F20113134A13F06CFB40F2C6
:10FE40000111114813F0ADFB0C236B4359F803303B
:10FE50009C4211D0002B91D01B68002BF8D18DE76C
:10FE600004605C60C4E7304698470028D3D1294637
:10FE7000304613F0B6FED7E76FF00F00BDE8F0870D
:10FE8000DA810300667A03009F8103004C8203003D
:10FE900000500040FE8103002DE9F843CCB2012C54
:10FEA000054609D9254926489923264A13F033FBEC
:10FEB0009921244813F075FB2B68AF68D3F808909C
:10FEC0004FF02003EFF3118683F31188BFF36F8F98
:10FED0000C2161437A18137A5BB3013BDBB21372D6
:10FEE00053BB7B50536009EB04135B684FEA041863
:10FEF000D3B9012109EB0802D37A03F1804303F55A
:10FF0000A04319601389002203F1804303F5A04345
:10FF10001A600C21002004FB0174607286F31188C2
:10FF2000BFF36F8FBDE8F883284698470028E0D1DB
:10FF3000EFE76FF07700F1E70020EFE7DA810300E9
:10FF4000667A03009F81030008B5104B1A6862B1FE
:10FF50000F4AD2F80423D10707D500220D481A60B2
:10FF60008368597A09B913F03CFE0B4B1A6862B1E9
:10FF7000074AD2F80423920707D5002201211A600C
:10FF80000448BDE8084013F02CBE08BD00510040F5
:10FF900000500040C09702200451004010B5064CAC
:10FFA000064922460648172313F0B5FA2046BDE855
:10FFB0001040172113F0F5BA7E820300D7AF03007B
:10FFC000667A0300002238B5224BC3F840214FF077
:10FFD0002003EFF3118583F31188BFF36F8F1E4861
:10FFE00010F0D0FC68B94A231C4A1D491D4813F083
:10FFF00092FA19491C4813F08EFA4A21174813F057
:020000022000DC
:10000000D0FA154810F0DCFC124B184AD3F804451E
:1000100013681148E41A24F07F442344136010F05D
:10002000BFFC68B95D230D4A11490E4813F073FAFD
:100030000949104813F06FFA5D21084813F0B1FA2E
:1000400085F31188BFF36F8F2046BDE8384011F06B
:10005000EFB800BF005001406C210220BA820300BB
:10006000E0820300667A0300F58203006821022023
:100070000D8303002483030070B515480EF08CFA3D
:1000800010B3436801211B689847002401264FF4F0
:1000900080334FF400120F4D3146C5F80845C5F8BE
:1000A0004065C5F804330C4B15201C600B4BC3F89E
:1000B0008021224600F0F0F9152000F0DDF92046FD
:1000C000074B1E602E6070BD4FF0FF30FBE700BF96
:1000D0005E820300005001404051014000E100E019
:1000E0000850014070B53A4EB0F1FF3F18BF0646C8
:1000F0004FF02003EFF3118483F31188BFF36F8F68
:10010000344810F03FFC68B94A23334A3349344835
:1001100013F001FA2F49334813F0FDF94A212E4814
:1001200013F03FFA2B4810F04BFC2F4BD3F804256B
:100130002E4B1B68D51A15F4000F25F07F41244D76
:100140002CD1701E20EAE070A842A8BF28460131D9
:100150000844A84294BF1B185B199A1A224922F03E
:100160007F4223F07F40022AC1F8400518D9194880
:1001700010F016FC68B95D23174A1D49184813F0A2
:10018000CAF914491B4813F0C6F95D21124813F04F
:1001900008FA84F31188BFF36F8F70BD0020D6E793
:1001A000D1F8042514489A1A22F07F42551E854240
:1001B00005D94FF40012114BC3F80021D7E7012AEB
:1001C00002BF023323F07F43C1F84035CFE700BFC1
:1001D000FEFFFF006C210220BA820300E0820300D0
:1001E000667A0300F5820300005001406821022076
:1001F0000D83030024830300FEFF7F0000E100E085
:1002000038B54FF02003EFF3118583F31188BFF366
:100210006F8F1A4810F0B6FB68B94A23184A19497B
:10022000194813F078F91549184813F074F94A2160
:10023000134813F0B6F9114810F0C2FB144B0F48E5
:10024000D3F80445134B1B68E41A24F07F4410F0E4
:10025000A7FB68B95D230A4A0F490B4813F05BF905
:1002600006490E4813F057F95D21054813F099F936
:1002700085F31188BFF36F8F204638BD6C210220B3
:10028000BA820300E0820300667A0300F58203006D
:1002900000500140682102200D83030024830300E5
:1002A00038B54FF02003EFF3118583F31188BFF3C6
:1002B0006F8F1B4810F066FB68B94A23194A1A4928
:1002C0001A4813F028F91649194813F024F94A215D
:1002D000144813F066F9124810F072FB154B1048E1
:1002E000D3F80445144B1B68E41A24F07F441C44E3
:1002F00010F056FB68B95D230A4A10490B4813F009
:100300000AF907490E4813F006F95D21054813F074
:1003100048F985F31188BFF36F8F204638BD00BFC1
:100320006C210220BA820300E0820300667A030097
:10033000F582030000500140682102200D83030074
:100340002483030004488168406A884203D003493B
:100350004FF080520A607047D03E022004ED00E06A
:10036000094A0A49936809685866996608494B68BA
:1003700043F080534B60002383F31188BFF36F8FEA
:100380009368986E704700BFD03E0220F07403005F
:1003900000ED00E02E498A684FF028001044EFF38A
:1003A000098C80E8F01F4FF010001EEA000F04D007
:1003B000D2F8AC0020F0040007E002F16C0080EC01
:1003C000108AD2F8AC0050F00400C2F8AC00202033
:1003D00080F31188BFF36F8F1E4F4FF000664A6A9B
:1003E0008A603E60506E0023536680F31188D2F815
:1003F000AC0010F0040F05D10023E1EE103A5EF0DE
:10040000100E05E02EF0100E02F16C0090EC108A38
:10041000EFF3148323F0040383F31488BFF36F8F87
:1004200004B5104613F016FCBDE8044002F12800A4
:1004300090E8F01F4FF0000080F30B888CF30988E0
:1004400002F1000004B513F0F6FBBDE8044070476C
:10045000D03E022004ED00E01EF0040F0CBFEFF3CD
:100460000880EFF30980816911F8021C0229FFD08E
:1004700001B513F0E4FB01BD43B2002B08DB012200
:1004800000F01F0002FA00F0024A5B0942F8230064
:10049000704700BF00E100E070B54C1C072C05461A
:1004A0000E460ED95C23104A1049114813F033F858
:1004B00031461048072213F02EF85C210A4813F049
:1004C00070F86BB2002BACBF03F160430A4B4FEAEC
:1004D0004414E4B2ABBF03F5614305F00F0583F8A4
:1004E00000435C5570BD00BF398303006F83030078
:1004F000667A03008A83030014ED00E008B572B643
:10050000044B186A18B100221A6215F03EF962B65F
:1005100008BD00BFD03E02202DE9F743DDF834903E
:100520000546B9F10F0F0F4690461E4626D11E4BC9
:100530009E4227D10E9B4246009339464B462846A1
:1005400015F0D8F907EB0804184BA4F1200222F0AB
:10055000070223F0010393610A9B166053600B9B13
:1005600093600C9BD3604FF08073D3610023AA6427
:100570006B66C5F8AC3003B0BDE8F08309F1100339
:100580001E2BD7D92D230A4A0A490B4812F0C3FF64
:1005900049466FF00F030E22084812F0BCFF2D21D0
:1005A000034812F0FEFFC5E7A5E602005935030037
:1005B000BF830300F1830300667A03007E84030097
:1005C000F8B51F4606460D4614460023E1EE103AE4
:1005D000EFF3148323F0040383F31488BFF36F8FC6
:1005E00000F050FB0B4B30462C449E6024F0070477
:1005F00013F030FB85F30B88384684F3098800211B
:1006000063B681F31188BFF36F8F0022002312F0CD
:10061000A3FF00BFD03E0220014910220A607047AC
:1006200010ED00E0404080F3118830BF704700BFFC
:10063000EFF30880EFF30981724601B500F0EAF9A3
:1006400001BD00BF2DE9F04107460C4686B00029E8
:100650004AD08B6828480093D1E90023452112F045
:100660005AFF636945210093D4E90323234812F01C
:1006700052FF4521E269224812F04DFF264600252F
:10068000DFF88880D6ED0B7AFCEEE77A96ED087AF3
:10069000CDED057AEB1C0493D6ED0A7AFCEEE77AF1
:1006A000CDED037AAB1C0293D6ED097AFCEEE77A26
:1006B000CDED017AFCEEC77A6B1C2A4600934521EA
:1006C00017EE903A4046043512F025FF102D06F142
:1006D0001006D7D14521226E0A4812F01CFF452191
:1006E000A269094812F017FF2146384606B0BDE856
:1006F000F0410DF07DBF00BFAF840300E384030031
:100700001785030073850300878503002B8503008D
:1007100030BFFFF7FDBF00BF114A08B5114B22F0F3
:100720007F029A60BFF34F8FBFF36F8FD3F888209B
:1007300042F4A002C3F888204FF04042C3F83422AC
:10074000BFF34F8FBFF36F8F0023E1EE103A0DF030
:10075000C3FF0DF0CBFF00F04BFA0EF005F800BF21
:1007600000C2010000ED00E001B572B60B4A106A4C
:1007700000281EBF0021116215F007F862B6EFF3E2
:100780000580A0F110004FEAC0000549014409C9E5
:100790009847BDE80140034908470000D03E0220C9
:1007A0006C6A03004503020012F003FF202080F36F
:1007B000118808484FF40061401880F30988EFF36E
:1007C00014800221084380F31488BFF36F8FFFF772
:1007D000A3FF00000074022070B5234C06460D46AE
:1007E0002248452112F097FEA26AD10403D5452183
:1007F0001F4812F090FEA36A1A0503D545211D4833
:1008000012F089FE184CA36A9B0510D51A484521A1
:1008100012F081FEA26BA36A180408D5452117487F
:1008200012F079FE1EB1A36A23F40043A3620E4CBA
:10083000A36A590503D54521114812F06CFEA36A3D
:10084000DA050BD545210F4812F065FE0020064A57
:10085000936A43F47F439362287070BDA36A9B043C
:10086000F4D545210848EFE700ED00E0BA85030024
:10087000D5850300EB850300038603002186030072
:100880003B8603005B8603007886030038B5214C65
:100890004521214812F03FFEA26A950103D545216A
:1008A0001E4812F038FEA36ADC0103D545211C481E
:1008B00012F031FE174DAC6A14F4801404D04521B7
:1008C000184812F028FE0224AB6A180303D545210C
:1008D000154812F020FE0F4DAA6A510303D5452199
:1008E000124812F018FEAB6A9A0303D5452110484E
:1008F00012F011FE074DAB6ADB0303D545210D480D
:1009000012F009FEAB6A20466FEA03436FEA134315
:10091000AB6238BD00ED00E0AC860300C986030081
:10092000E1860300008703002F870300528703003E
:100930007C8703009B87030070B52A4C06460D4652
:100940002948452112F0E7FDA26AD10603D54521C9
:10095000264812F0E0FDA36A1A0703D54521244872
:1009600012F0D9FD1F4CA36A9B0710D521484521E1
:1009700012F0D1FD626BA36A180608D545211E4806
:1009800012F0C9FD1EB1A36A23F08003A362154CC7
:10099000A26AD10703D54521184812F0BCFDA36A0D
:1009A0009A0603D54521164812F0B5FD0D4B9B6AFA
:1009B000DB060ED5134940F23513134A134812F0E3
:1009C000AAFD134812F0A7FD40F235110E4812F0AF
:1009D000E8FD0020034A936A43F0FF039362287006
:1009E00070BD00BF00ED00E0CB870300E687030089
:1009F000EB8503001E8803003B8803005688030034
:100A000078860300D7AF03007A880300667A030074
:100A1000B48803002DE9F043564B8146D3F8048097
:100A20000D46144600269DB0C8F3080786F31188CA
:100A3000BFF36F8F02F07F43B3F17F4F11D1D00727
:100A40000FD4510604D4220709D44D46012607E0ED
:100A50004521494812F05FFD14F0040420D000261F
:100A60007DB94FF46C73454A4549464812F053FD31
:100A7000454812F050FD4FF46C71404812F091FD62
:100A800000250023FA1E1C468DF807301346092B5B
:100A90005DD8DFE803F0075155355C5C5C5C5C5960
:100AA0004D46DCE74521394812F035FD314B8DF8D4
:100AB0000740DC6A14F0020405D04521344812F0E6
:100AC0002AFD00241FE0DB6A5B001CD5452131486C
:100AD00012F021FD304B1B782BB101200DF10701E5
:100AE000FFF72AFF0EE02D4B1B782BB101200DF1F3
:100AF0000701FFF771FE05E0294B1B889BB213B17C
:100B0000FFF7C4FE04469DF8073093B968222946D2
:100B100002A814F0F9FF099B36B3C3F3080222B907
:100B20006FEA53236FEA43230993204602A9FFF794
:100B300089FD1DB0BDE8F08300200DF10701CFE76E
:100B400000200DF10701D4E745211648B7E7164903
:100B500018F4F87F154A164808BF0A46A7F1100393
:100B6000452112F0D8FCACE723F4FF7323F0010316
:100B7000DAE700BF00ED00E01C8903007A8803007B
:100B800044890300667A03005789030095890300AE
:100B9000B1890300D789030028ED00E029ED00E0CA
:100BA0002AED00E0FB890300EE88030003890300BF
:100BB000368A0300044B5A6942F010025A615A699E
:100BC00042F480625A61704700ED00E0BFF34F8F3E
:100BD0000549064BCA6802F4E0621343CB60BFF3D9
:100BE0004F8F00BFFDE700BF00ED00E00400FA05F5
:100BF000002320210348C2180133412B82F800133F
:100C0000F9D1704700E100E038B504464FF0200309
:100C1000EFF3118583F31188BFF36F8F037BDB073D
:100C20000CD512492323124A124812F074FC1248C0
:100C300012F071FC23210E4812F0B3FC20460FF095
:100C40001BF90E4B9B68A3420BD10D4B5A68C2F3A4
:100C5000080212B92846FFF783FB5A6842F0805217
:100C60005A602846BDE8384014F0F3BD8F8A03006F
:100C70004E8A0300667A0300BD8A0300D03E02203C
:100C800000ED00E010B50E4B88B002930D4B0E4CFA
:100C900003930E4B0E4A049302AB019301A8234623
:100CA000012100F06DF9002307930A4B0121E41A9A
:100CB00005A80593069400F087F908B010BD00BFA1
:100CC00000000220000000000000042006000100D7
:100CD000000002200000022010B50B680C7A23F0FF
:100CE0001F0204F01F031A43CB68640923F01F039B
:100CF000044943EA440343F001038860CA600B617E
:100D000010BD00BF90ED00E030B54B680C6885B0B9
:100D10000A898D7A0094013B24F01F04234402F0D9
:100D20001F0242EA451223F01F030F2804468DF8E4
:100D30000820039309D902464521064812F0EBFB2F
:100D40006FF01504204605B030BD6946FFF7C4FFBB
:100D5000F8E700BFDC8A03002DE9F04F80468946A2
:100D6000144600274E4D85B04F4529DA58F82730F4
:100D7000D3F804A0BAF1000F42D0BAF11F0F18D96E
:100D80001AF01F0F15D1D3F800B01BF01F0F10D1B0
:100D9000584612F067FF06460AEB0B00013812F0C6
:100DA00061FF864210D06FF01506324645213D485E
:100DB00002E03A4645213C4812F0ADFB6FF01504C5
:100DC000204605B0BDE8F08F16F1160FEDD0631E7A
:100DD000B342EADBAE60E868AE602B6958F82710D2
:100DE00020F01F0043F01F0BD1E900321A44984253
:100DF00002F1FF3A16D1D34504D1F0B2FFF784FFD8
:100E00000137B1E7AE60EB6822F01F0203F01F0369
:100E10001A43EA60E0B2FFF777FF10F1160FCDD06A
:100E2000441CEDE7AE602A69013B23F01F0302F08A
:100E30001F021343D345E0B22B61ECD0FFF764FFF0
:100E400010F1160FBAD0AE60EA689DF808300BF1C9
:100E5000FF3B62F304038DF808302B699DF80820EE
:100E60005B0863F347128DF8082058F827200130FB
:100E7000D2E900321344009323F01F035B44A3EB39
:100E80000A03C0B223F01F030F28039303D90246BD
:100E90004521064890E76946FFF71EFFC0E700BFFF
:100EA00090ED00E02F8B0300078B0300DC8A03002A
:100EB0000522034B5A60BFF34F8FBFF36F8F70470C
:100EC00090ED00E0BFF35F8F0022014B5A60704746
:100ED00090ED00E070B5204E3568102D13D940F22A
:100EE00029131E4A1E491F4812F015FB10222946DD
:100EF0001D4812F010FB194840F2291112F051FB65
:100F00004FF0FF3070BDFFF7DDFF0020174C184A8F
:100F10002263854219D1174B1D70FFF7C9FF236863
:100F2000C3F30723102B0ED0134940F24B130B4A87
:100F30000C4812F0F0FA114812F0EDFA40F24B11A1
:100F4000064812F02EFB0020DCE7716801EB00116F
:100F5000FFF7C2FE0130DCE728700300578B030067
:100F6000D7AF0300667A0300978B030090ED00E093
:100F7000AAFF4400F1410220CB8B03001C8C03002C
:100F800038B50C4D0C462A78FFF7E6FE287016306F
:100F90000FD1F223084A0949094812F0BCFA214648
:100FA000084812F0B8FABDE83840F221024812F0C1
:100FB000F8BA38BDF1410220578B0300D7AF0300C8
:100FC000667A03003D8C03002DE9F74F2F4E8946CA
:100FD00005464FF00008B3462D4FC84502DB03B06D
:100FE000BDE8F08FD5F804A0BAF1000F49D0296808
:100FF0000846019112F036FE019904460AEB010001
:10100000013812F02FFE84424FF01402214B18D009
:101010006FF0150302FB08F84BF808304FF48173AA
:101020001D4A1E491E4812F076FA49461D4812F024
:1010300072FA4FF48171184803B0BDE8F04F12F016
:10104000B0BA14F1160F3460E8D01978A142E5DD8A
:1010500002FB08B0BC60BC60FC6800F10801007BCA
:1010600064F30400087138690C79400860F3471490
:101070000C71F96821F01F017160396921F01F01BD
:10108000316108F1010814360C35A6E77021022001
:1010900090ED00E0F1410220578B0300D7AF030031
:1010A000667A0300698C030070B5164B0C461E78F7
:1010B000054633460021144A0F2B1DDD134951F814
:1010C000040BFFF709FE324621462846FFF744FE8F
:1010D000163015D140F211130D4A0E490E4812F088
:1010E0001AFA21460D4812F016FABDE8704040F297
:1010F0001111074812F055BA936011610133DBE713
:1011000070BD00BFF141022090ED00E0702102208F
:10111000578B0300D7AF0300667A0300988C030057
:10112000014B1860704700BF60950220F8B5064675
:101130000D460024064FAC4208DA3B6898470A285F
:10114000305504F1010401D00D28F4D12046F8BD3A
:101150005C950220F8B50D46094F461EC0F101040A
:10116000A3199D4201DC2846F8BD73780A2B02D1F1
:101170000D203B6898473B6816F8010F9847EFE74A
:1011800060950220052108B50148FFF7E3FFFEE75F
:10119000C58C030010B504464FF0FF310A4812F029
:1011A000CCF90A490B68E018094CC4F1005202F569
:1011B000802290422EBF4FF0FF34E41808600248AE
:1011C00012F0B6F9204610BDA0980220842102201A
:1011D0005C99022038B50D46044670B90B4940F2BF
:1011E00011230B4A0B4812F096F90B4812F093F9B1
:1011F00040F21121064812F0D4F923680C33D3E8E9
:10120000AF0F284100F0010038BD00BF0A8D030078
:10121000E28C0300667A0300108D030010B50446CB
:1012200070B90D4940F2E3130C4A0D4812F073F9FE
:101230000C4812F070F940F2E311084812F0B1F9CD
:1012400023680C33D3E8EF2F42F00102C3E8E12F0B
:101250000029F7D110BD00BF0A8D0300E28C030006
:10126000667A0300108D030038B500210546FFF7AC
:10127000B1FF28B92B6828469B7E1BB1FFF7CEFF34
:10128000002023E012F01EFDC0B92B681B6973B962
:101290000F4940F68F530F4A0F4812F03CF90F48A0
:1012A00012F039F940F68F510A4812F07AF92846BF
:1012B000FFF7B4FF284612F00AFDE1E78368002B30
:1012C000E3D00121284698470028DEDA38BD00BF68
:1012D0003D8D0300138D0300667A0300108D03001B
:1012E00038B5074C074DAC4200D138BD23681B68A8
:1012F0005B681BB11B680BB1204698472034F2E7AE
:10130000209902204099022038B5074C074DAC4285
:1013100000D138BD03212046FFF75CFF10B92046FD
:10132000FFF7A2FF2034F2E7209902204099022023
:1013300000232DE9F04F022889B007461646CDE973
:10134000063304913ED106A8059101461A4606E0EF
:101350000C78013201340C70D4B2072C04D8049CF0
:1013600034F81240002CF3D00133082B01F10101B5
:10137000ECD14FF0FF384FF00109002310F8012B9A
:101380004A4588BF4FFA83F803F10103DBB288BFF7
:101390009146082BF2D19B46B9F1010F4FF03A0369
:1013A00008BF4FF0FF380393002134460D465D45DA
:1013B00017DBB44208D00023012F0CBF04F8013C16
:1013C000237002E0012804D00026304609B0BDE8B1
:1013D000F08F2E234FF0040B4FF0FF38814603931C
:1013E000E2E7BBF1040F3BD1049B5A5D4AB93023BD
:1013F000204600F8023B039B637001350446EDB2C2
:10140000D5E74FF0090E4FF0000ACDE901243A4824
:10141000DDF804C0F245BCFBF0F200FB12C2019201
:1014200001DC844508D3BCFBF0FCF246029B0CF1C6
:10143000300C03F801CB02930A220EF1FF3EBEF1FD
:10144000FF3FB0FBF2F0E3D14FF00002029B1A70B5
:101450001B1BDAB254FA83F3581C039BA354CCE74A
:10146000A84510D111B9B8F1000F02D13A2304F800
:10147000013B3A23204600F8013B09F1FF331D44AC
:101480000021EDB2B9E711B13A2304F8013B059B05
:1014900033F81530190241EA132111F47F4F0AB2D3
:1014A000C1F307235FFA81FA16D00F2BD9B20BD9FB
:1014B00000236122204612F017FC012361225146CD
:1014C00012F012FC012198E75BB2092994BF303376
:1014D0005733601C2370F0E7BAF10F0F03D9612274
:1014E00051462046ECE753B2BAF1090F94BF3033AE
:1014F0005733601C2370E5E700CA9A3B2DE9F041A1
:101500000D6890F878403B4B3B4A074690F87600D0
:10151000053504280CBF104618460D60884612F0A9
:10152000CFFCC4F34004034638B9D8E90020904208
:1015300097F8761004D16FF00B031846BDE8F081E0
:10154000501CC8F800001170D8E900629642F2D031
:10155000721CC8F8002033704146B7F8740012F0CE
:101560009DFC03460028E8D107F1440012F0A8FCD6
:1015700003460028E1D1B86D6400D8B197F87830FF
:1015800044F0040403F0010344EA4314037A41469F
:10159000DB0003F018031C4312F092FC0346002802
:1015A000CBD1FB6D41460BB3184612F089FC0346C4
:1015B0000028C2D1386D38B1414612F081FC034693
:1015C0000028BAD144F08004786D38B1414612F059
:1015D00077FC03460028B0D144F040043470424602
:1015E0002946BDE8F041102012F085BC12F056FCEF
:1015F000DDE700BF5070030058700300D0E90023FE
:101600009B1A012B81BF054B1B881380036883BF86
:101610000233436000206FF00B0070476E8D0300B3
:10162000D0E900239B1A012B81BF054B1B88138037
:10163000036883BF0233436000206FF00B007047E4
:10164000708D030070B5104C054623684BB90F49E7
:101650000F4821230F4A11F05EFF21210D4811F0A0
:10166000A0FF23685B684BB90B4909482223094A4C
:1016700011F051FF2221074811F093FF23682846FB
:10168000BDE870405B681847F82002204F7B0300DC
:10169000667A03001F7B03007C8D03002DE9F04177
:1016A0002D4CC56C236806462F884BB92B492C4816
:1016B00019232C4A11F02FFF19212A4811F071FF2C
:1016C00023681B684BB9284925481A23254A11F07D
:1016D00022FF1A21234811F064FF236838460622AE
:1016E00001211B68984700280746B06205DA12F00E
:1016F000E0FA00684042BDE8F0812B88F56C012BD0
:10170000236814BF4FF018084FF008084BB913496D
:1017100013484523134A11F0FEFE4521114811F0EC
:1017200040FF23685B694BB910490D4846230D4AB9
:1017300011F0F1FE46210B4811F033FF23684246B9
:10174000294638465B699847002803DAB06AFFF7F4
:1017500079FFCCE70020CEE7F82002204F7B030082
:10176000667A03001F7B03008E8D0300A18D0300AA
:101770002DE9F74F80460024CDE900211D4F1E4E74
:10178000009B9C4201D300202EE0019BD8F82890BA
:1017900003EB040A009BA3EB040B3B684BB917490E
:1017A00017487E23324611F0B6FE7E21304611F0F6
:1017B000F8FE3B68DB6A4BB9124911487F23324679
:1017C00011F0A9FE7F21304611F0EBFE3B685A462E
:1017D000DB6A51461D4648460023A847002806DA22
:1017E00012F067FA0068404203B0BDE8F08F04448D
:1017F000C6E700BFF82002201F7B03004F7B0300D9
:10180000667A0300B58D03002DE9F041184C002BDA
:1018100023680D46164614BF4FF000084FF04008ED
:10182000876A4BB9134914486923144A11F073FEAF
:101830006921124811F0B5FE23685B6A4BB9104963
:101840000D486A230D4A11F066FE6A210B4811F01B
:10185000A8FE236832465C6A294643463846A047BC
:10186000002803DA12F025FA00684042BDE8F08152
:10187000F82002204F7B0300667A03001F7B0300E1
:10188000C68D030090F82430014A1B01D358184735
:101890006070030010B4044B90F8244003EB041371
:1018A0005B685DF8044B18476070030030B4044C6B
:1018B00090F8245004EB0514A468A44630BC60479B
:1018C0006070030090F82420024B03EB0213DB68E6
:1018D000184700BF60700300C26810B542B10F4BDB
:1018E00082689B689A4215D1BDE810400DF002BC99
:1018F0006FF0150443230A4A0A490B4811F00BFE06
:1019000021460A4811F007FEBDE810404321044873
:1019100011F047BE4FF0FF34ECE700BFD03E02208D
:10192000D78D0300088E0300667A0300118E030032
:1019300010B54FF0FF310DF0FFFA044678B13923AE
:10194000074A0849084811F0E6FD2146074811F00A
:10195000E2FDBDE810403921014811F022BE10BD62
:10196000D78D0300088E0300667A0300338E0300D0
:1019700070B5104C054623684BB90F490F48212319
:101980000F4A11F0C8FD21210D4811F00AFE23680D
:101990005B684BB90B4909482223094A11F0BBFD8A
:1019A0002221074811F0FDFD23682846BDE870405C
:1019B0005B681847F82002204F7B0300667A03001B
:1019C0001F7B03007C8D03002DE9F341154C9846E5
:1019D000236805460E4617464BB91349134857234B
:1019E000134A11F098FD5721114811F0DAFD2368D0
:1019F000DB694BB90F490D4858230D4A11F08BFD97
:101A000058210B4811F0CDFD2368CDF80080DC692A
:101A100032463B464FF48D712846A04702B0BDE8E0
:101A2000F08100BFF82002204F7B0300667A03009C
:101A30001F7B0300538E03002DE9F341494DC66C13
:101A40002B68044637884BB9474948481923484A08
:101A500011F061FD1921464811F0A3FD2B681B68A8
:101A60004BB9444941481A23414A11F054FD1A2107
:101A70003F4811F096FD2B684FF4817201213846E2
:101A80001B6898470028A06206DA12F012F9006875
:101A9000404202B0BDE8F0810423052104F12C028C
:101AA000FFF792FF002803DAA06AFFF761FFECE777
:101AB000626B002A31D1E26B002A39D1226C002AF4
:101AC00041D13388E76C012B2B680CBF4FF008081D
:101AD0004FF01808A66A4BB9234924484523244AE5
:101AE00011F019FD4521224811F05BFD2B685B695F
:101AF0004BB921491D4846231D4A11F00CFD4621D2
:101B00001B4811F04EFD2B684246394630465B6952
:101B100098470028C8DB0020BBE7236B002BCAD006
:101B20000321A06A9B00FFF74FFF0028C3DABBE741
:101B3000A36B002BC2D00121A06A9B00FFF744FFDA
:101B40000028BBDAB0E71046A76A0192FBF7D0FA8B
:101B500002210346019A3846FFF736FF0028B0DA23
:101B6000A2E700BFF82002204F7B0300667A030043
:101B70001F7B03008E8D0300A18D03002DE9F74F1D
:101B800080460024CDE900211D4F1E4E009B9C4243
:101B900001D300202EE0019BD8F8289003EB040A23
:101BA000009BA3EB040B3B684BB9174917487E23F6
:101BB000324611F0B0FC7E21304611F0F2FC3B6859
:101BC000DB6A4BB9124911487F23324611F0A3FC5E
:101BD0007F21304611F0E5FC3B685A46DB6A5146EE
:101BE0001D4648460023A847002806DA12F061F88F
:101BF0000068404203B0BDE8F08F0444C6E700BF70
:101C0000F82002201F7B03004F7B0300667A03004D
:101C1000B58D03002DE9F041184C002B23680D46CB
:101C2000164614BF4FF000084FF04008876A4BB9C2
:101C3000134914486923144A11F06DFC69211248B4
:101C400011F0AFFC23685B6A4BB910490D486A2359
:101C50000D4A11F060FC6A210B4811F0A2FC2368C8
:101C600032465C6A294643463846A047002803DAD4
:101C700012F01FF800684042BDE8F081F820022011
:101C80004F7B0300667A03001F7B0300C68D0300B1
:101C90002DE9F041476804463B680D46164663B996
:101CA00009494B23094A0A4811F035FC094811F04B
:101CB00032FC4B21054811F074FC3246294620467F
:101CC0003B68BDE8F0411847978E03006A8E030019
